:020000040800F2
:1000000000000520013B00088DE200088FE2000897
:1000100091E2000893E2000895E200080000000069
:1000200000000000000000000000000097E200084F
:1000300099E20008000000009BE200089DE2000831
:10004000513B0008513B0008513B0008513B000860
:10005000513B0008513B0008513B0008513B000850
:10006000513B0008513B0008513B0008513B000840
:10007000513B0008513B0008513B0008513B000830
:10008000513B0008513B0008513B0008513B000820
:10009000513B0008513B0008513B0008513B000810
:1000A000513B0008513B0008513B0008513B000800
:1000B000513B0008513B0008513B0008513B0008F0
:1000C000513B0008513B0008513B0008513B0008E0
:1000D000513B0008513B0008513B0008513B0008D0
:1000E000513B0008513B0008513B0008513B0008C0
:1000F000513B0008513B0008513B0008513B0008B0
:10010000513B0008513B0008513B0008513B00089F
:10011000513B0008513B0008513B0008513B00088F
:10012000513B0008513B0008513B0008513B00087F
:10013000A1E20008513B0008513B0008513B000878
:10014000513B0008513B0008513B0008513B00085F
:10015000513B0008513B0008ADE20008513B00084C
:10016000513B0008513B0008513B0008513B00083F
:10017000513B0008513B0008513B000800000000C3
:10018000513B0008513B0008513B0008513B00081F
:10019000513B0008513B0008513B0008513B00080F
:1001A000513B0008513B0008513B0008513B0008FF
:1001B000513B0008513B0008513B0008513B0008EF
:0801C000513B0008513B00080F
:1001D00010B5054C237833B9044B13B10448AFF381
:1001E00000800123237010BD1011002000000000CA
:1001F000240A010808B5034B1BB103490348AFF3B8
:10020000008008BD0000000014110020240A01082D
:100210004B1C012B98BF70472DE9F003911C9B08E4
:10022000B1F80480B1F802900A8831F802CC804419
:10023000814402448444D9F80070D8F800601568FD
:10024000DCF80040C9F80060C8F80070CCF8005035
:100250001460D9F80470D8F804605568DCF80440DC
:10026000C9F80460C8F80470CCF804505460083130
:10027000013BD5D1BDE8F00370474B1C012B98BF63
:1002800070472DE9F003911C9B08B1F80480B1F888
:1002900002900A8831F802CC00EB580800EB5909AB
:1002A00000EB520200EB5C0CD9F80070D8F800604B
:1002B0001568DCF80040C9F80060C8F80070CCF898
:1002C000005014600831013BDFD1BDE8F0037047F6
:1002D00010F8012B11F8013B012A28BF9A42F7D0F0
:1002E000D01A7047034613F8012B002AFBD1181AC5
:1002F000013870470000000000000000000000000E
:1003000001F0FF01102A2BDB10F0070F08D010F8C6
:10031000013B013A8B422DD010F0070F42B3F6D1CA
:10032000F0B441EA012141EA014122F007047FF0E3
:1003300000070023F0E80256083C85EA010586EA3A
:10034000010685FA47F5A3FA87F586FA47F6A5FA76
:1003500087F68EB9EED1F0BC01F0FF0102F0070282
:1003600032B110F8013B013A83EA010313B1F8D12D
:100370000020704701387047002D06BF354603380E
:10038000073815F0010F07D1013015F4807F02BF47
:10039000013015F4C03F0130F0BC0138704700BF98
:1003A00081F0004102E000BF83F0004330B54FEA26
:1003B00041044FEA430594EA050F08BF90EA020F93
:1003C0001FBF54EA000C55EA020C7FEA645C7FEA26
:1003D000655C00F0E2804FEA5454D4EB5555B8BF49
:1003E0006D420CDD2C4480EA020281EA030382EABA
:1003F000000083EA010180EA020281EA0303362D4C
:1004000088BF30BD11F0004F4FEA01314FF4801C1E
:100410004CEA113102D0404261EB410113F0004F30
:100420004FEA03334CEA133302D0524263EB4303E7
:1004300094EA050F00F0A780A4F10104D5F1200E85
:100440000DDB02FA0EFC22FA05F2801841F10001E0
:1004500003FA0EF2801843FA05F359410EE0A5F1B4
:1004600020050EF1200E012A03FA0EFC28BF4CF0E5
:10047000020C43FA05F3C01851EBE37101F000459B
:1004800007D54FF0000EDCF1000C7EEB00006EEBA8
:100490000101B1F5801F1BD3B1F5001F0CD3490832
:1004A0005FEA30004FEA3C0C04F101044FEA445289
:1004B00012F5800F80F09A80BCF1004F08BF5FEA10
:1004C000500C50F1000041EB045141EA050130BDF0
:1004D0005FEA4C0C404141EB0101013C28BFB1F502
:1004E000801FE9D291F0000F04BF01460020B1FA4D
:1004F00081F308BF2033A3F10B03B3F120020CDA20
:100500000C3208DD02F1140CC2F10C0201FA0CF0FD
:1005100021FA02F10CE002F11402D8BFC2F1200C62
:1005200001FA02F120FA0CFCDCBF41EA0C01904018
:10053000E41AA2BF01EB0451294330BD6FEA040461
:100540001F3C1CDA0C340EDC04F11404C4F120024C
:1005500020FA04F001FA02F340EA030021FA04F35E
:1005600045EA030130BDC4F10C04C4F1200220FAB5
:1005700002F001FA04F340EA0300294630BD21FAF3
:1005800004F0294630BD94F0000F83F4801306BFB9
:1005900081F480110134013D4EE77FEA645C18BFAD
:1005A0007FEA655C29D094EA050F08BF90EA020F44
:1005B00005D054EA000C04BF1946104630BD91EA3C
:1005C000030F1EBF0021002030BD5FEA545C05D13F
:1005D0004000494128BF41F0004130BD14F580047E
:1005E0003CBF01F5801130BD01F0004545F0FE41F2
:1005F00041F470014FF0000030BD7FEA645C1ABF27
:10060000194610467FEA655C1CBF0B46024650EA5D
:10061000013406BF52EA033591EA030F41F4002189
:1006200030BD00BF90F0000F04BF0021704730B50F
:100630004FF4806404F132044FF000054FF00001E4
:1006400050E700BF90F0000F04BF0021704730B5A5
:100650004FF4806404F1320410F0004548BF40427A
:100660004FF000013EE700BF42004FEAE2014FEACF
:1006700031014FEA02701FBF12F07F4393F07F4FAA
:1006800081F06051704732F07F4208BF704793F0AD
:100690007F4F04BF41F40021704730B54FF46074C0
:1006A00001F0004521F000411CE700BF50EA0102C3
:1006B00008BF704730B54FF000050AE050EA01026C
:1006C00008BF704730B511F0004502D5404261EBDC
:1006D00041014FF4806404F132045FEA915C3FF41D
:1006E000D8AE4FF003025FEADC0C18BF03325FEABA
:1006F000DC0C18BF033202EBDC02C2F1200300FA6B
:1007000003FC20FA02F001FA03FE40EA0E0021FA8F
:1007100002F11444BDE600BF70B54FF0FF0C4CF47D
:10072000E06C1CEA11541DBF1CEA135594EA0C0F2F
:1007300095EA0C0F00F0DEF82C4481EA030621EA6A
:100740004C5123EA4C5350EA013518BF52EA0335A5
:1007500041F4801143F4801338D0A0FB02CE4FF057
:100760000005E1FB02E506F00042E0FB03E54FF087
:100770000006E1FB03569CF0000F18BF4EF0010E7F
:10078000A4F1FF04B6F5007F64F5407404D25FEA7B
:100790004E0E6D4146EB060642EAC62141EA55512E
:1007A0004FEAC52040EA5E504FEACE2EB4F1FD0C70
:1007B00088BFBCF5E06F1ED8BEF1004F08BF5FEAEE
:1007C000500E50F1000041EB045170BD06F00046A0
:1007D00046EA010140EA020081EA0301B4EB5C044D
:1007E000C2BFD4EB0C0541EA045170BD41F4801145
:1007F0004FF0000E013C00F3AB8014F1360FDEBF6A
:10080000002001F0004170BDC4F10004203C35DA45
:100810000C341BDC04F11404C4F1200500FA05F3C8
:1008200020FA04F001FA05F240EA020001F0004269
:1008300021F0004110EBD37021FA04F642EB0601DF
:100840005EEA430E08BF20EAD37070BDC4F10C0409
:10085000C4F1200500FA04F320FA05F001FA04F2CD
:1008600040EA020001F0004110EBD37041F10001B9
:100870005EEA430E08BF20EAD37070BDC4F12005C4
:1008800000FA05F24EEA020E20FA04F301FA05F22C
:1008900043EA020321FA04F001F0004121FA04F2D4
:1008A00020EA020000EBD3705EEA430E08BF20EAA4
:1008B000D37070BD94F0000F0FD101F000464000DE
:1008C00041EB010111F4801F08BF013CF7D041EA60
:1008D000060195F0000F18BF704703F00046520064
:1008E00043EB030313F4801F08BF013DF7D043EA35
:1008F0000603704794EA0C0F0CEA135518BF95EAEB
:100900000C0F0CD050EA410618BF52EA4306D1D171
:1009100081EA030101F000414FF0000070BD50EA90
:10092000410606BF1046194652EA430619D094EA1A
:100930000C0F02D150EA013613D195EA0C0F05D104
:1009400052EA03361CBF104619460AD181EA030158
:1009500001F0004141F0FE4141F470014FF0000010
:1009600070BD41F0FE4141F4780170BD70B54FF0AB
:10097000FF0C4CF4E06C1CEA11541DBF1CEA13552B
:1009800094EA0C0F95EA0C0F00F0A7F8A4EB05040D
:1009900081EA030E52EA03354FEA013100F0888004
:1009A0004FEA03334FF0805545EA131343EA1263CD
:1009B0004FEA022245EA111545EA10654FEA002682
:1009C0000EF000419D4208BF964244F1FD0404F53B
:1009D000407402D25B084FEA3202B61A65EB030597
:1009E0005B084FEA32024FF480104FF4002CB6EB54
:1009F000020E75EB030E22BFB61A754640EA0C00D4
:100A00005B084FEA3202B6EB020E75EB030E22BF13
:100A1000B61A754640EA5C005B084FEA3202B6EB54
:100A2000020E75EB030E22BFB61A754640EA9C0013
:100A30005B084FEA3202B6EB020E75EB030E22BFE3
:100A4000B61A754640EADC0055EA060E18D04FEAA1
:100A5000051545EA16754FEA06164FEAC30343EA41
:100A600052734FEAC2025FEA1C1CC0D111F4801F0E
:100A70000BD141EA00014FF000004FF0004CB6E707
:100A800011F4801F04BF01430020B4F1FD0C88BFA6
:100A9000BCF5E06F3FF6AFAEB5EB030C04BFB6EBB1
:100AA000020C5FEA500C50F1000041EB045170BDA4
:100AB0000EF0004E4EEA113114EB5C04C2BFD4EBD1
:100AC0000C0541EA045170BD41F480114FF0000E55
:100AD000013C90E645EA060E8DE60CEA135594EAD1
:100AE0000C0F08BF95EA0C0F3FF43BAF94EA0C0FD4
:100AF0000AD150EA01347FF434AF95EA0C0F7FF449
:100B000025AF104619462CE795EA0C0F06D152EA9C
:100B100003353FF4FDAE1046194622E750EA410680
:100B200018BF52EA43067FF4C5AE50EA41047FF491
:100B30000DAF52EA43057FF4EBAE12E74FF0FF3CF6
:100B400006E000BF4FF0010C02E000BF4FF0010CC7
:100B50004DF804CD4FEA410C7FEA6C5C4FEA430C40
:100B600018BF7FEA6C5C1BD001B050EA410C0CBF8F
:100B700052EA430C91EA030F02BF90EA020F0020F1
:100B8000704710F1000F91EA030F58BF994208BF58
:100B900090422CBFD8176FEAE37040F00100704715
:100BA0004FEA410C7FEA6C5C02D150EA013C07D16C
:100BB0004FEA430C7FEA6C5CD6D152EA033CD3D0B7
:100BC0005DF8040B704700BF8446104662468C46B1
:100BD0001946634600E000BF01B5FFF7B7FF0028E4
:100BE00048BF10F1000F01BD4DF808EDFFF7F4FF0D
:100BF0000CBF012000205DF808FB00BF4DF808ED98
:100C0000FFF7EAFF34BF012000205DF808FB00BFBA
:100C10004DF808EDFFF7E0FF94BF012000205DF8DC
:100C200008FB00BF4DF808EDFFF7CEFF94BF012091
:100C300000205DF808FB00BF4DF808EDFFF7C4FF8A
:100C400034BF012000205DF808FB00BF4FEA410CD3
:100C50007FEA6C5C02D150EA013C0AD14FEA430CB6
:100C60007FEA6C5C02D152EA033C02D14FF00000F3
:100C700070474FF0010070474FEA410212F5001231
:100C800015D211D56FF47873B3EB625212D94FEAD3
:100C9000C12343F0004343EA505311F0004F23FABD
:100CA00002F018BF404270474FF00000704750EA12
:100CB000013005D111F0004008BF6FF000407047CF
:100CC0004FF00000704700BF4A0011D212F5001229
:100CD00011D20DD56FF47873B3EB62520ED44FEA94
:100CE000C12343F0004343EA505323FA02F0704714
:100CF0004FF00000704750EA013002D14FF0FF3052
:100D000070474FF0000070474FEA4102B2F1E043F4
:100D100024BFB3F5001CDCF1FE5C0DD901F0004CE2
:100D20004FEAC0024CEA5070B2F1004F40EB830032
:100D300008BF20F00100704711F0804F21D113F15E
:100D40003872BCBF01F00040704741F480114FEA97
:100D50005252C2F11802C2F1200C10FA0CF320FA20
:100D600002F018BF40F001004FEAC1234FEAD3233D
:100D700003FA0CFC40EA0C0023FA02F34FEA4303A7
:100D8000CCE77FEA625307D150EA01331EBF4FF030
:100D9000FE4040F44000704701F0004040F0FE404B
:100DA00040F40000704700BF7BB972B90029BEBF94
:100DB00000204FF0004106E008BF00281CBF6FF084
:100DC00000414FF0FF3000F0B5B9ADF1080C6DE90E
:100DD00004CE002909DB002B1ADB00F04DF8DDF80A
:100DE00004E0DDE9022304B07047404261EB4101B9
:100DF000002B1BDB00F040F8DDF804E0DDE9022306
:100E000004B0404261EB4101524263EB430370473F
:100E1000524263EB430300F02FF8DDF804E0DDE914
:100E2000022304B0404261EB41017047524263EB40
:100E3000430300F021F8DDF804E0DDE9022304B00B
:100E4000524263EB4303704753B94AB9002908BFC4
:100E500000281CBF4FF0FF314FF0FF3000F06AB99F
:100E6000ADF1080C6DE904CE00F006F8DDF804E001
:100E7000DDE9022304B070472DE9F047089D0C46D8
:100E8000002B4ED194468C458646B2FA82F262D946
:100E90004AB1C2F12003914020FA03F30CFA02FC9C
:100EA000194300FA02FE4FEA1C471FFA8CF6B1FB09
:100EB000F7F44FEA1E4307FB141143EA014304FB16
:100EC00006F199420AD91CEB030304F1FF3080F0CC
:100ED0001281994240F20F81023C6344591A1FFA71
:100EE0008EF3B1FBF7F007FB101143EA014300FB5F
:100EF00006F69E420AD91CEB030300F1FF3180F095
:100F0000FC809E4240F2F980634402389B1B40EA19
:100F1000044000211DB1D3400022C5E90032BDE8E4
:100F2000F0878B4205D90DB1C5E9000100210846C3
:100F3000F5E7B3FA83F1002946D1A34202D39042E8
:100F4000C0F0F080861A64EB03030120002DE6D088
:100F5000C5E90063E3E7002A40F09080A1EB0C04B0
:100F60004FEA1C481FFA8CF70121B4FBF8F64FEA50
:100F70001E4308FB164443EA044307FB06F098426D
:100F800008D91CEB030306F1FF3402D2984200F2A9
:100F9000CD8026461C1A1FFA8EF3B4FBF8F008FB2E
:100FA000104443EA044300FB07F79F4208D91CEBB7
:100FB000030300F1FF3402D29F4200F2B0802046CA
:100FC000DB1B40EA0640A5E7C1F120068B4022FA70
:100FD00006F71F4320FA06FC04FA01F343EA0C0368
:100FE000F44000FA01F8380C4FEA1349B4FBF0FE64
:100FF0001FFA87FC00FB1E4449EA04440EFB0CF96F
:10100000A14502FA01F20AD93C190EF1FF3A80F02B
:101010008480A14540F28180AEF1020E3C44A4EBF5
:1010200009041FFA83F9B4FBF0F300FB134449EA07
:10103000044403FB0CFCA44507D93C1903F1FF3021
:1010400067D2A44565D9023B3C4443EA0E40A0FB6D
:101050000293A4EB0C049C42CE469C4651D34ED046
:1010600055B1B8EB0E0364EB0C0404FA06F6CB4062
:101070001E43CC40C5E90064002150E7C2F12003C3
:1010800020FA03F10CFA02FC24FA03F394400C4317
:101090004FEA1C4800FA02FE1FFA8CF7B3FBF8F087
:1010A00008FB1031230C43EA014300FB07F199428E
:1010B00008D91CEB030300F1FF362CD299422AD940
:1010C000023863445B1AA4B2B3FBF8F108FB113396
:1010D00044EA034401FB07F3A34208D91CEB0404D0
:1010E00001F1FF3613D2A34211D902396444E41A44
:1010F00041EA004139E70446F0E6084606E7C845FC
:10110000AED2B9EB020E63EB070C0138A8E731460B
:10111000EDE7034699E73046D4E7D6467FE76344D8
:1011200002384DE70646234608460FE7023E634471
:1011300030E700BF704700BF2DE9F84F00EB4108D2
:1011400004464D0817460438414694462E464FF053
:10115000000EDFF88C9096B902233A4629462046C5
:1011600000F0F2F8404602233A46294600F0ECF837
:101170002046AE4200F108001BD1BDE8F88F5CF8B4
:10118000043B50F8042F92FA2EFA0A6892FA2EF2D3
:10119000DAFA12FB9AFA22F2026023FB0BF243FB0B
:1011A0001BF303EA0903013E43EA124341F8043BFF
:1011B000D1E730F9084C013630F9061C30F9042C1F
:1011C000640030F9023C4900520020F8084C5B00F2
:1011D00020F8061C20F8042C20F8023CC9E700BFC8
:1011E0000000FFFF2DE9F84F00EB410804464D08D1
:1011F00017460438414694462E464FF0000EDFF85D
:101200008C9096B902233A462946204600F0D2F93E
:10121000404602233A46294600F0CCF92046AE4229
:1012200000F108001BD1BDE8F88F5CF8043B50F8D2
:10123000042F92FA2EFA0A6892FA2EF2DAFA12FBC8
:101240009AFA22F2026043FB0BF223FB1BF303EA40
:101250000903013E43EA124341F8043BD1E730F968
:10126000084C013630F9061C30F9042C640030F9C2
:10127000023C4900520020F8084C5B0020F8061C94
:1012800020F8042C20F8023CC9E700BF0000FFFF53
:10129000012A70B50D4604461E4601882DD1B1F5D0
:1012A000807F1CD011D8402919D00CD8102916D015
:1012B00020291DD0002E45D0A2682846A189BDE86E
:1012C0007040FEF7DABF8029F3E7B1F5006F0FD069
:1012D0000BD8B1F5007F0BD0B1F5806FEAD10123B7
:1012E0006268284600F066F9E4E7B1F5805FF5E74B
:1012F00062682846FFF776FFDCE7B1F5807F18D0FB
:101300000DD8402915D008D8102912D02029D1D1C4
:1013100062682846FFF710FFCCE78029F7E7B1F5B0
:10132000006FF5D00BD8B1F5007FF1D0B1F5806F2B
:10133000C0D101236268284600F006F8BAE7B1F58B
:10134000805FF5E770BD00002DE9F04F9B4691B03E
:101350008B080025A0F10409DFF854E2019321F085
:101360000303DDF804C000EB4304C618043B0090FF
:10137000A4F10408043E1C442B46039159F8040FC1
:1013800090FA23F090FA23F058F8047F97FA23F7A5
:1013900097FA23F790FA17F1D0FA17F056F8047F6E
:1013A00097FA23FA9AFA23FA54F8047F97FA23F764
:1013B00097FA23F79AFA17F791FA27FAC9F800A0D3
:1013C000D1FA17F752F8351021FB07FA41FB17F154
:1013D000376897FA23F797FA23F701EA0E0141EAF3
:1013E0001A413160216891FA23F191FA23F1D7FA79
:1013F00011F1A0FA11F7E0FA11F152F8250020FBE3
:1014000001FA40FB11F00C2100EA0E00694340EAAA
:101410001A40C8F80000515821FB07F041FB17F1B2
:1014200001EA0E01BCF1010C5D4441EA104121606A
:10143000A4D14FEA8B0B0199CDF83CC004292BD8DD
:10144000009B103353F8102C53F8086C92FA16F0E6
:1014500053F80C1C53F8044C91FA14F590FA25F546
:1014600043F8105C91FA14F5D0FA25F043F80C0C0F
:10147000D2FA16F2D1FA14F1E2FA21F043F8080C8C
:10148000A2FA21F243F8042C1033019A013A019296
:10149000D8D111B0BDE8F08F8B08002488080693DE
:1014A00021F00303254604938B000C93009B03EB70
:1014B000C00E9C4652F8253000200294079352F843
:1014C000353008930C236B435D44D3580993049B38
:1014D00073440D93049B63440E930D9B0EEB000A23
:1014E00003EB00090E9B03EB00080CEB00030593D4
:1014F0000C9B1844DDE90236B3420BD30134069B42
:101500000EF1040E0CF1040CA342D3D14FEA8B0B65
:10151000194693E7059BDAF800701E6896FA17F3F0
:101520000A93D6FA17F3D8F80060D9F800700B9335
:1015300096FA17F60A9B93FA26F70F9B97FA23F76A
:10154000059B1F600A9BD3FA26F3089E26FB03F730
:1015500046FB13F31B0CD8F800601B0443EA174347
:10156000C8F80030D9F80030D6FA13F60B9BA3FA6E
:1015700026F30B9FE7FA26F6079F27FB06F847FBA3
:1015800016F6360C360446EA1846CAF80060099E7C
:1015900026FB03F6099F47FB13F31B0C1B0443EACE
:1015A0001643C9F80030029B0B44029395E700BF35
:1015B0000000FFFF2DE9F04F9B4691B08B080025FE
:1015C000A0F10409DFF854E2019321F00303DDF8F0
:1015D00004C000EB4304C618043B0090A4F10408C7
:1015E000043E1C442B46039159F8040F90FA23F053
:1015F00090FA23F058F8047F97FA23F797FA23F725
:1016000090FA17F1D0FA17F056F8047F97FA23FAF8
:101610009AFA23FA54F8047F97FA23F797FA23F7F4
:101620009AFA17F791FA27FAC9F800A0D1FA17F732
:1016300052F8351041FB07FA21FB17F1376897FA8A
:1016400023F797FA23F701EA0E0141EA1A413160C4
:10165000216891FA23F191FA23F1D7FA11F1E0FA16
:1016600011F7A0FA11F152F8250040FB01FA20FB16
:1016700011F00C2100EA0E00694340EA1A40C8F854
:101680000000515841FB07F021FB17F101EA0E0160
:10169000BCF1010C5D4441EA10412160A4D14FEA44
:1016A0008B0B0199CDF83CC004292BD8009B10333B
:1016B00053F8102C53F8086C92FA16F053F80C1CDF
:1016C00053F8044C91FA14F590FA25F543F8105CA0
:1016D00091FA14F5D0FA25F043F80C0CD2FA16F270
:1016E000D1FA14F1A2FA21F043F8080CE2FA21F23F
:1016F00043F8042C1033019A013A0192D8D111B069
:10170000BDE8F08F8B0800248808069321F00303BE
:10171000254604938B000C93009B03EBC00E9C4664
:1017200052F8253000200294079352F83530089380
:101730000C236B435D44D3580993049B73440D936E
:10174000049B63440E930D9B0EEB000A03EB000910
:101750000E9B03EB00080CEB000305930C9B184455
:10176000DDE90236B3420BD30134069B0EF1040EC1
:101770000CF1040CA342D3D14FEA8B0B194693E72B
:10178000059BDAF800701E6896FA17F30A93D6FAEA
:1017900017F3D8F80060D9F800700B9396FA17F693
:1017A0000A9B93FA26F70F9B97FA23F7059B1F6076
:1017B0000A9BD3FA26F3089E46FB03F726FB13F396
:1017C0001B0CD8F800601B0443EA1743C8F800302C
:1017D000D9F80030D6FA13F60B9BE3FA26F30B9FE9
:1017E000A7FA26F6079F47FB06F827FB16F6360CE6
:1017F000360446EA1846CAF80060099E46FB03F61E
:10180000099F27FB13F31B0C1B0443EA1643C9F87B
:101810000030029B0B44029395E700BF0000FFFFDE
:101820002DE9F041970800F110040B46BC46103436
:101830000833BCF1000F0BD100EB071002F00302DC
:1018400001EBC70100EB8202904222D1BDE8F0819A
:1018500054F8205C25FB05F854F81C5C25FB05FEBC
:1018600054F8186C26FB06F654F8145C25FB05F5B5
:101870004FEA68480CF1FF3C4FEA6E4E761423F8AD
:10188000088C6D1423F806EC23F8046C23F8025C32
:10189000CDE750F8043B23FB03F35B1421F8023B34
:1018A000D2E72DE9F04F93B001F108091093436896
:1018B0000A90059383680B930388029303F1004316
:1018C000CDE90E12013B059A02EB43030C93109BEA
:1018D0009B0803930C9B083308930F9B08330993D1
:1018E000029B9B0802EBC30B043204920B9A02EB9F
:1018F000C3030D93DDE9023803F003031193B8F13C
:10190000000F32D1039A40460E9B03EBC2090F9B96
:1019100003EBC2030193059B03EBC20C0C9B03EB8F
:10192000C20E109B03F0030B029B4FEA530A834540
:101930000CEB400240F0A9800A9B141D5968029BE1
:101940000D1D013B9808404540F0B98002EBC002F4
:1019500003F0030301EBC00102EB430302399A4297
:1019600040F0B88013B0BDE8F08F59F8083C089AF1
:10197000DDF82CA042F8083C59F8043C42F8043C3D
:10198000049B53F8043C0693049B53F8023C0793D2
:10199000049B08330493019300231C461A461F46F8
:1019A00018469C4619469E46019D083501950D9D99
:1019B000AA453DD1119D8DB1DBF80450069E0195DD
:1019C0000D9D2D68C6FBC51E079EC6FBC50C019E5E
:1019D000C6FBC527DBF80660C6FBC534D20B08F191
:1019E000FF38DB0B09F10809C90B0BF1080BC00B21
:1019F00042EA474243EA444302F30F0203F30F0370
:101A0000C2EA0342089B41EA4E4140EA4C40083397
:101A100000F30F0001F30F01C1EA00410998089398
:101A2000034640F8081C40F8042C0833099366E785
:101A30005AF8086B069DC5FBC61E079DC5FBC60C64
:101A4000019D55F8105CC5FBC627019D55F80E5C3D
:101A5000C5FBC634019D5AF8046C55F8105CC5FBF3
:101A6000C61E019D55F80E5CC5FBC60C019D55F8C0
:101A70000C5C0695019D55F80A5C0795069DC5FB13
:101A8000C627079DC5FBC6348EE739F9103054468A
:101A90000B9F2EF810300023194652F8045B57F8BC
:101AA000046BC5FBC631013CF7D1DB0B019A43EA5D
:101AB000414303F30F0322F81030013037E752F8A7
:101AC000386041F8386054F8386045F8386008F1FB
:101AD000010838E732F9020B21F8020F3FE7000056
:101AE00010B589B2214C0271C460B1F5007F204C61
:101AF00001600461437126D00FD8802926D006D812
:101B0000202926D0402928D04FF0FF301AE0B1F527
:101B1000807FF9D12022174B11E0B1F5805F1FD0F3
:101B200008D8B1F5806F1ED0B1F5006FECD104225A
:101B3000114B04E0B1F5005FE6D101220F4B82604A
:101B40004361002010BD10220D4BF8E740220D4BE1
:101B5000F5E74FF480720C4BF1E780220B4BEEE778
:101B600002220B4BEBE708220A4BE8E7BC9A040879
:101B7000BC5A04085C5904082C5904080C59040880
:101B80004C5904086C5904088C5904087C59040801
:101B90001C5904083C5904082DE9F74FDDE90C7481
:101BA00082464FF0000EA50007F1040C03EB8409F8
:101BB0004B1E019501F1804507EBC101013D02EB90
:101BC00084020439AD00009205F1040880440CF150
:101BD000040C04399BB9B0F902103D44B0F900205F
:101BE000EB80521A5210AA80B0F90020B0F902100E
:101BF0007B800A4452103A8003B0BDE8F08F009A0F
:101C00005AF804BF52F80E404BFB04F658F8044D46
:101C100059F80E2024FB026644FB12F4009A52F895
:101C20000E202BFB12442414019A3614013B2CF88D
:101C3000024C64422CF8046C96448E80CC80C6E73B
:101C40002DE9F045089C01F1010E00264FEA840CB5
:101C500000EB8E0EB14201D1BDE8F0855EF8045D67
:101C6000D3F800A045FB0AF850F82670146827FB4B
:101C7000048825FB1AF56D4244FB17544FEA1845BA
:101C8000634424146244C5EA0444079D45F8264091
:101C90000136DFE72DE9F34115460279076804466E
:101CA000012A0E46D0F814804FEA57071DD18368E9
:101CB0003946CDE90053D0E903233046FFF7C0FF92
:101CC0006379227929464046FFF7E2FA23682A46DB
:101CD00005EB43039A4202D102B0BDE8F081B2F9AC
:101CE0000010490022F8021BF4E743794046FFF751
:101CF000CFFAA36839463046CDE90053D4E903232F
:101D0000FFF74AFFE8E700292DE9F0414FEA930584
:101D100002F1080419DA0646AE46C1F1000C083497
:101D20000836BEF1000F4CD100EBC50003F00303F1
:101D300002EBC502494200EB4303984216D030F94A
:101D4000024B0C4122F8024BF7E70746AC46083439
:101D50000837BCF1000F0BD100EBC50003F0030303
:101D600002EBC50500EB4303984222D1BDE8F081A8
:101D700037F9086C0CF1FF3C37F906EC8E400EFA8F
:101D800001FE06F30F060EF30F0EC6EA0E4637F9F4
:101D900002EC44F8106C37F9046C0EFA01FE0EF3F5
:101DA0000F0E8E4006F30F06C6EA0E4644F80C6C82
:101DB000CDE730F9022B8A4002F30F0225F8022BFF
:101DC000D2E736F9087C0EF1FF3E36F9068C47FA69
:101DD0000CF748FA0CF8C7EA084736F9028C44F8C1
:101DE000107C36F9047C48FA0CF847FA0CF7C7EA7D
:101DF000084744F80C7C92E770B58AB0064602F0BA
:101E00008DFE002840F09B804E4B00254E4C9E429C
:101E100075610CBF4D4A4E4A9E4232604D4AC6E93A
:101E200001254FF00102C6E90755C6E9032546D151
:101E300001958020236B4FF0020C05A943F080032D
:101E40002363236B079503F080030193019B122307
:101E5000CDE9050304234048CDE908C302F00AFA9E
:101E60004FF4807305A93C48059302F003FA0295EC
:101E70002A46236C0521482043F400032364236C85
:101E800003F400030293029B236A43F400032362DA
:101E9000236A23F40003236201F0C6FE482001F008
:101EA000F5FE49202A46052101F0BEFE492001F039
:101EB000EDFE30460AB0BDE8704002F09BBC0395D1
:101EC0004FF48072236B0221244843F00203236302
:101ED000236B079503F002030393039B1223CDE9C1
:101EE00005230423CDE9081305A902F0C3F94FF433
:101EF000007305A91948059302F0BCF904952A4618
:101F0000236C05211F2043F400132364236C03F486
:101F100000130493049B236A43F400132362236A8F
:101F200023F40013236201F07FFE1F2001F0AEFEB8
:101F300020202A46052101F077FE2020B7E70AB0CD
:101F400070BD00BF2C11002000380240005C004032
:101F50000054004032279140001C0240000402401F
:101F600030B54FF47A7485B005460294BDF824402C
:101F70000194089C009402F09FFC044628B1284676
:101F800002F084FC2846FFF737FF204605B030BD3D
:101F900030B54FF47A7485B005460294BDF82440FC
:101FA0000194089C009402F01EFD044628B12846C6
:101FB00002F06CFC2846FFF71FFF204605B030BD3D
:101FC00030B5044687B0D0B90E4B0225009001A968
:101FD0001A6B0D4842F480721A631B6B03F4807312
:101FE0000093009B0123CDE9015303930323049342
:101FF00002F040F922462946034802F0C1FA07B030
:1020000030BD00BF003802400020024070B52E4BAA
:1020100088B00446D0B900901A6B42F480721A63FB
:102020001B6B03F480730093009B49BB274B059106
:1020300033F81430CDE90331022303A90693244B6E
:1020400053F8240002F016F908B070BD01284FF0D3
:1020500000020AD101921A6B42F480721A631B6B60
:1020600003F480730193019BDFE702921A6B42F441
:1020700080721A631B6B03F480730293029BD4E794
:102080000129E1D1114D0026124A03A935F8143077
:1020900005EB440503930223CDE905630E4BB442DF
:1020A00018BF134604930A4B53F8240002F0E2F8D9
:1020B00095F9064032460F21204601F0B5FD204635
:1020C00001F0E4FDC0E700BF00380240BCDA0408BC
:1020D0000000002000002110000011100148FFF74F
:1020E0008BBE00BF2C110020704700001FB552BAF4
:1020F0000223ADF80E200DF10E02019300920A4664
:1021000001460348FFF72CFF05B05DF804FB00BF54
:102110002C1100201FB500230A460DF10E01ADF869
:102120000E3002230091014601930548FFF730FF6E
:10213000BDF80E0040BA80B205B05DF804FB00BFE8
:102140002C1100200BF0B4BDFFF7C8BF1FB58DF8F0
:102150000F200DF10F02012300920A460146019360
:102160000248FFF7FDFE05B05DF804FB2C110020CE
:102170001FB500230A460DF10F018DF80F30012322
:102180000091014601930448FFF702FF9DF80F00FC
:1021900005B05DF804FB00BF2C1100200BF088BDDA
:1021A0001FB5ADF80E200DF10E02012300920A4674
:1021B000014601930248FFF7D3FE05B05DF804FB2A
:1021C000681100201FB501930DF10F038DF80F204A
:1021D0000A460093014601230248FFF7C1FE05B0FD
:1021E0005DF804FB681100201FB500230A460DF1BD
:1021F0000F018DF80F30012300910146019304482F
:10220000FFF7C6FE9DF80F0005B05DF804FB00BFA8
:10221000681100200148FFF7EFBD00BF68110020E2
:10222000044B054A05480360536823F48033536028
:1022300003F0A1BE045C0140005C0140A411002039
:10224000054B064A064840F8843F536A23F480331E
:10225000536203F090BE00BF245C0140005C01406B
:10226000A41100202DE9F74F374B0025374C4FF0D4
:10227000200B374F4FF4803A23604FF001087B6802
:1022800016464FF4802923F480337B608023E2617B
:102290004FF4007260602046E2630191656125633E
:1022A000A560C4F81880A565C4E90D354FF4005346
:1022B00023614023C4E9103B0423C4E912A5C4E907
:1022C0001731C4E9149503F0BFFD224880234FF471
:1022D0000072C4F88400786A019920F48030786232
:1022E0000320C4F8C020C4F8880004F18400C4F8B6
:1022F000A060C4F89850C4F8B450C4F88C80C4F8F6
:102300009450C4F89C80C4F8DC50C4F8E410C4E9CC
:102310002E354023C4E9313B0423C4E933A5C4F876
:10232000E030C4E9359503F08FFD2268136843EA75
:102330000A031360D4F88420136843EA0A03136085
:1023400003B0BDE8F08F00BF045C0140A411002081
:10235000005C0140245C014038B50D4B05460C463D
:102360008AB2D3F8083101463420DB68984760B957
:10237000B4F5003F2946064834BFC4F34F024FF678
:10238000FF7203F041FE002038BD0120FCE700BFD2
:10239000A411002008B509F0B1F808BD08B509F08E
:1023A000AEF808BD704700002DE9F0474F4C8AB0E9
:1023B00000254FF0020903274FF00A080095064652
:1023C000636C05A94A484FF0400A43F40003636474
:1023D000636C03F400030093009B0195236B43F4AB
:1023E00080732363236B03F480730193019B029535
:1023F000236B43F480732363236B03F48073029392
:10240000029B0395236B43F480732363236B07952F
:1024100003F480730393039B8023CDE90878CDE90F
:10242000053901F027FF202305A93148CDF8248084
:10243000CDE90539CDE9075701F01CFF05A92C4866
:10244000CDF82480CDE905A9CDE9075701F012FFA9
:10245000102305A92648CDF82480CDE90539CDE91A
:10246000075701F007FF0495236B326843F480039C
:102470002363236B03F480030493049B1D4B9A4254
:1024800029D11D4B4FF0C0624FF480614FF40050D2
:102490004FF40034C3F81851C3F83C51C3F84461F9
:1024A000C3E9442A4FF40062C3E947124FF4807233
:1024B000C3E949020422C3E94B4203F586740F4A7B
:1024C0002046F466C3F80C21C3E94D7501F058FCB1
:1024D000204601F011FC002205213C2001F0A4FB64
:1024E0003C2001F0D3FB0AB0BDE8F0870038024081
:1024F00000200240045C0140A411002070640240EE
:1025000010B5A2B00C4601A803F018FB42F6113337
:102510009C4207D045F222639C4203D04AF64443D2
:102520009C4211D14FF4801301934FF48003119317
:1025300040F2AD13029302230493132301A80A93DC
:1025400002F062FF22B010BD4FF4801301934FF4EC
:10255000800311934FF4AC73029307230493012378
:10256000ECE700008AB20146024808B503F096FD88
:10257000002008BD2812002008B508F0ADFF08BDF6
:1025800008B508F0B3FF08BD7047000038B50C4827
:1025900003F01FFE05460B4803F01BFEAB1E04466E
:1025A000DBB2022B01D9122D01D1FFF7FBFEA31ED6
:1025B000DBB2022B01D9222C01D1FFF7E5FF38BD98
:1025C000A4110020281200202DE9F0413F4D8AB0CF
:1025D000002402274FF480680646019405A96B6C1D
:1025E0003B4843F400036B646B6C03F400030193FA
:1025F000019B02942B6B43F040032B632B6B03F086
:1026000040030293029B0A23CDE905870993CDE994
:10261000074701F02FFE03942B6B05A92D4843F0CB
:1026200080032B632B6B03F080030393039B4FF416
:102630000043CDE90747CDE9053401F01BFE0494C2
:102640002B6B326843F480032B632B6B03F4800302
:102650000493049B204B9A4225D1204B4FF40061F8
:102660004FF400524FF48070C3F88841C3F894418E
:10267000C3F89C61C3E95E124FF40032C3E9600203
:102680000322C3E95A44C3E96324C3E95C4803F560
:10269000B274134A20463467C3F8642101F070FB1A
:1026A000204601F029FB00220621462001F0BCFA59
:1026B000462001F0EBFA00220321282001F0B4FAB1
:1026C000282001F0E3FA0AB0BDE8F08100380240AA
:1026D00000180240001C0240245C0140A4110020AC
:1026E000B86402402DE9F8431D4620F48073044687
:1026F0008846B3F5007F914602D00120BDE8F883FB
:10270000204EFFF79DFDFFF78BFD2946002206F1C5
:102710008400FFF7F5FE30461B4B40F8843F03F082
:1027200058FD014618B906F18400FFF74DFF174B1D
:102730001448336003F04DFD014610B91148FFF70E
:1027400033FEB4F5007F124F2A464FF000000CBF55
:102750000A210521FFF786FDBB683420984748F61B
:1027600094139842C9D1FB6A34209847C6F808717F
:102770002B463E684A4644EA08013420B047002010
:10278000BCE700BFA4110020245C0140045C0140B0
:102790006C0000202DE9F3471A4C98464FF4403363
:1027A00017463422814663602046D4F8E8300E464E
:1027B000DDF82CA002FB0343D3F88850AB1E5D422A
:1027C0005D410A9B6D00E3600F4BA560236001F043
:1027D0003EFCA0B94946204601F0E4FC78B93B46EE
:1027E000324651462046CDF8008001F05CFC30B9FD
:1027F0000A21204602B0BDE8F04701F071BC02B0EA
:10280000BDE8F087F413002000B00240044B3421EF
:10281000D3F8E82001FB0233D3F8A000704700BFD3
:10282000F4130020044B3421D3F8E82001FB0233D9
:10283000D3F8A400704700BFF413002070B5002443
:102840008EB00E4605460194FFF7E0FFCDE9020485
:10285000FFF7E8FFFF234FF4C062ADF834408DF876
:1028600036400A96CDE90634CDE9040407230F4C1F
:10287000CDE90823FFF7CAFF0B90FFF7D3FF2A46E5
:102880000C9001A904F1400002F042FA0C2303FB72
:1028900005404FF0FF33C0F8F030054BC0F8F4307E
:1028A0004FF07F43C0F8EC300EB070BDF413002041
:1028B00018000020014BC3F8E8007047F413002013
:1028C000044B0C21D3F8E82001FB0233C3F8EC00E1
:1028D000704700BFF4130020044B0C21D3F8E8200C
:1028E00001FB0233C3F8F000704700BFF41300206F
:1028F000044B0C21D3F8E82001FB0233C3F8F400A9
:10290000704700BFF41300200E4B2DE9F0410E4636
:1029100014463421D3F8E820054601FB0233D3F8EE
:102920008880D3F89C70FFF771FFB8F1020F00FBAD
:10293000065004D1A4B227F81040BDE8F08147F852
:102940002040FAE7F41300202DE9F04F85B0203A3B
:102950004FF00008CDE9010128490C20D1F8E8B07A
:1029600000FB0B11D1F8F410B1F80490B1F806A0F7
:1029700009F107060D680AFB02F2F610C9EBC60062
:1029800006FB025509F1FF3252FA80F30393029BD2
:10299000D04503EB080293B2009302D305B0BDE823
:1029A000F08F012E2C7804D0022E09D12C8864BA25
:1029B000A4B20027B9450AD808F101083544E6E772
:1029C0006A78240444EA0224AA781443F1E7019BBC
:1029D0000122D819039BD91B084B80B201378A40CA
:1029E000009922424FF00C0202FB0B3214BFD2F8C6
:1029F000EC20D2F8F020FFF787FFDBE7F41300208C
:102A00002DE9F047804610469A460E461546FDF7DA
:102A100069FC8146FFF7FAFE224B0C21BAF1010F47
:102A2000D3F8E82001FB0233D3F8F470BB88B0FB85
:102A3000F3F41ED0BAF1020F23D00FFA88F300246A
:102A4000002BD8BF4FF00108FFF7E0FEBB88A2B211
:102A500015F80490013403FB120080B2984234BF91
:102A600000200120B9F1000F08BF002080B9BDE8A7
:102A7000F087A4EB09045C4308EB54001FFA80F8CC
:102A8000DBE7A4EB090414FB03F4A4EB0800F5E76F
:102A900040464A463146FFF757FFBB8843441FFA7A
:102AA00083F8D1E7F41300202DE9F3471B4D984636
:102AB0000C230446D5F8E8601746894603FB065305
:102AC000D3F8EC00FFF7FCFE342303FB0653D3F8E6
:102AD0008820D3F89CA0022A18D1FFF797FE00FBAC
:102AE00009400AEB400AFFF791FE0C23C01B3A464F
:102AF00003FB0651D1F8EC3051460090304601936B
:102B00004346FFF747FE02B0BDE8F087FFF77EFEC1
:102B100000FB09440AEB840AE5E700BFF413002038
:102B200008B5094B4FF4805108481A6C936943F07B
:102B300001039361012201F023FD012208210448D1
:102B4000BDE8084001F01CBDF41300200020024045
:102B50000028024008B5094B4FF4805108481A6C10
:102B6000936923F001039361002201F009FD002223
:102B700008210448BDE8084001F002BDF41300201C
:102B80000020024000280240F0B54F4B8FB00022D9
:102B900002240E254D4800924FF48057596C4C4E3C
:102BA00041F080615964596C01F080610091009995
:102BB0000192196B41F400011963196B01F40001D2
:102BC000019101990292196B41F010011963196B7F
:102BD00001F01001029102990392196B41F040013A
:102BE0001963196B01F04001039103990492196B69
:102BF00041F480711963196B01F480710491049997
:102C00000592196B41F400711963196B01F400719D
:102C1000059105990692196B41F480611963196B4E
:102C200001F48061069106990792196B41F4807155
:102C30001963196B01F48071079107990892196B58
:102C400041F48061196309A91B6B0D9503F480633E
:102C50000893089B1023CDE90B24CDE9093401F03A
:102C600009FB092309A91B480D93CDE9097401F05B
:102C700001FB4FF4674309A930460D95CDE90934AE
:102C800001F0F8FA4EF6FF7309A913480D95CDE946
:102C9000093401F0EFFAF72309A90D950125CDE9D3
:102CA00009340E4C204601F0E5FA09A9304609978F
:102CB0000A9501F0DFFA082309A92046CDE9093574
:102CC00001F0D8FA0FB0F0BD003802400010024009
:102CD0000020024000180240002402400028024068
:102CE00007480823C0F80431C02300F5827043610F
:102CF0000523C3614FF48033C36202F085BB00BF7C
:102D0000F413002010B52822244C0923352140F269
:102D10001B1040F21D1CC4E915230B23C4E9171333
:102D200040F215230021C4E9193040F2352304F1A3
:102D30004000C4E91B3CFFF7D3FF4FF4F07E4FF493
:102D400088732046C4E928E30023A4F8743084F88B
:102D50007630C4E91133C4E91333114B40F8403FD6
:102D600002F003F8014618B904F14000FFF70CFF28
:102D70000C4801F05DFF01224FF480510A4801F038
:102D8000FFFB01220821094801F0FAFB00F092FA4A
:102D90000748FFF7ADFD002010BD00BFF413002071
:102DA0000068014034140020002002400028024046
:102DB000180000207FB54FF4005301210A48019309
:102DC0000223CDE90313094B01A9029301F052FA42
:102DD00000220F21282000F027FF282000F056FFB6
:102DE000002007B05DF804FB00080240000031102D
:102DF000012307B54FF4005107488DF8073001F063
:102E0000B9FB012802D100238DF807309DF8070097
:102E100003B05DF804FB00BF0008024007B501469F
:102E20000598019004980090044803F06BFF003867
:102E300018BF012003B05DF804FB00BF801500201F
:102E400007B501460598019004980090044804F0E5
:102E50000FF8003818BF012003B05DF804FB00BF75
:102E6000801500202DE9F04F584B8BB000254FF016
:102E7000030806464FF00409019505A95A6C4FF462
:102E8000804B53484FF0200A42F40062514C5A6480
:102E900027465A6C02F400620192019A02951A6B5D
:102EA00042F480021A631A6B02F480020292029AC0
:102EB00003951A6B42F004021A631A6B02F00402C3
:102EC0000392039A04951A6B42F008021A630222D5
:102ED0001B6B03F008030493049B0123CDE9062335
:102EE0000C23CDE908834FF4F853059301F0C2F9A0
:102EF00005A93948CDF8149001F0BCF92A460521FE
:102F0000312000F091FE312000F0C0FE4FF48062CD
:102F10004FF480534FF000613048E56647F8600F8A
:102F20003846B765C4F88880C4F89860C4E91C23A3
:102F30004FF44033C4E91915C4E920394FF40001B6
:102F40004FF40013C4E91EBAC4E9231300F018FFBC
:102F5000384600F0D1FE4FF480624FF480534FF4B6
:102F6000000740214FF00060C4F8C450C4F8E0806E
:102F7000C4F8F060C4E932234FF44033C4E9363971
:102F80004FF40013C4E93973154B2746C4E92F01E8
:102F900047F8B83F3846F765C4E934BA00F0F0FEA8
:102FA000384600F0A9FE2A4606213B2000F03CFEF0
:102FB0003B2000F06BFE2A460621452000F034FE3F
:102FC000452000F063FE0BB0BDE8F08F00380240F2
:102FD0000008024080150020000C024058640240A6
:102FE000A06402407FB500210C4B0D4800911A6B84
:102FF00042F004021A6301221B6B03F004030093E6
:10300000009B4FF40053CDE90131032301A9CDE921
:10301000032301F02FF907B05DF804FB00380240EC
:103020000008024070B5144C0026144B314620466F
:10303000A661C4E90036C4E90266C4E90466FFF784
:10304000D1FFFFF7D5FE0128054613D131462046B2
:10305000FFF708FF04F58871204603F0D9FB38B963
:103060004FF40061204603F0ADFD851B18BF01251C
:10307000284670BD0225FBE780150020002C01408A
:10308000014803F0D5BF00BF80150020014601486C
:1030900003F081BA801500202DE9F743214C102759
:1030A00001264FF00008E519214681464FF6FF72D0
:1030B0002846CDF80480C4E90067C4E9026803F03B
:1030C000FDFF30460AF0F4FD022321464FF6FF7261
:1030D0002846C4E90037C4E9026803F0EFFF032380
:1030E00021464FF6FF722846C4E900370823C4E999
:1030F000023803F0E3FF4FF4087321464FF6FF72E6
:10310000019304232846A660C4E90037019BE360CD
:1031100003F0D4FF4946284603B0BDE8F04303F06E
:10312000E5BF00BF9817002070B5594B8EB0002442
:10313000064609A9574801949A6B42F001029A6326
:103140009A6B02F001020192019A02941A6B42F406
:1031500080021A631A6B02F480020292029A0394AC
:103160001A6B42F004021A631A6B02F00402039213
:10317000039A04941A6B42F008021A631A6B02F065
:1031800008020492049A05941A6B42F010021A6322
:103190001A6B02F010020592059A06941A6B42F01F
:1031A00020021A631A6B02F020020692069A079414
:1031B0001A6B42F040021A631A6B02F04002079247
:1031C000079A08941A6B42F080021A6301221B6B63
:1031D00003F080030893089B0223CDE90A320C9385
:1031E0000C230D930823099301F044F84CF20B7360
:1031F00009A92948099301F03DF84FF6837309A9FD
:103200002648099301F036F84FF63F0309A92448F0
:10321000099301F02FF848F2331309A921480993C3
:1032200001F028F8282309A91F48099301F022F882
:103230001E4B80214FF400724FF480601D465C6786
:103240009C64C3E913124FF48052C3E915024FF492
:103250008042C3E917244FF40032C3E91924032242
:10326000C3E91B24124A45F8442F28463563DE671C
:1032700000F086FD284600F03FFD2246052138205B
:1032800000F0D2FC382000F001FD0EB070BD00BF90
:103290000038024000080240000C024000100240CA
:1032A0000014024000180240001C02409817002041
:1032B0001064024038B51B4C07211B4B0422102020
:1032C0004FF4006523610223E261C4F8B430C4E91D
:1032D0002731C4E92B334023C4E92921C4E9080379
:1032E00000214FF48073C4E90A314FF48053A16385
:1032F000C4E90C5304F110052846C4E90511FFF791
:1033000013FF04F19C012846084C03F0B7FE003877
:1033100018BF0120207040F20360FFF7BDFE207847
:1033200038BD00BF98170020400100A040000020D9
:1033300038B50B4C0B4D208070202B68618098476E
:103340006B6870209847512808D108237020656069
:103350006372EB6820729847002038BD0320FCE7B9
:10336000A8180020440000202DE9F04F3F4C0546EE
:103370008FB06368207A1B699847287078B104F190
:103380000C0704F120090DF1140802AE08A90BAADC
:1033900005F10A0A4FF0000B2B785B4503D800209B
:1033A0000FB0BDE8F08F6368207A5B69CDE9001249
:1033B0009847637A012BDDE9001234D10B88338002
:1033C0001388A8F8003036F802CB386883B28445F9
:1033D000D9F800008CBFACEB0303A3EB0C0380B265
:1033E0001FFA83FE38F8023B0090D9F800008342B0
:1033F00000988CBF181AC01A80B270440528207A31
:10340000C4BFC7F800C0C9F80030702820D12AF81E
:1034100008CC0BF1010B043709F104090231023227
:103420002AF8023FB8E7980742BF0888C0F58050E5
:103430003080580742BF1088C0F58050A8F80000BF
:103440001B0741BF0B88A8F8003013883380BAE708
:10345000386823884343D9F800001B0B2AF8083C3E
:1034600063884343C3F30F33D3E700BFA81800209A
:10347000704700207047000013B500240221C0B23D
:103480008DF80740FEF774FE8DF807009DF80730B1
:1034900003F00F038DF807309DF80730052B01D995
:1034A0008DF807409DF80720034B9DF807005A70E0
:1034B00000229A7002B010BDDC1800202DE9F347FD
:1034C0002B4C15464FF000080F46A37862788DF814
:1034D00007809A4245D9092B46D803EB43035B008A
:1034E000DBB2191D03F1030A03F106090533C9B262
:1034F0005FFA8AFA5FFA89F95FFA83F8C6B2304652
:10350000FEF736FE8DF807009DF80730514630462D
:10351000A380FEF72DFE8DF8070049469DF8073081
:103520003046A2881B0203F4706313433B80A380E0
:10353000FEF71EFE8DF8070041469DF80730304625
:10354000A380FEF715FE8DF807009DF80730A288CE
:103550001B0203F470631343A3802B80A378013311
:10356000A37002B0BDE8F087C146C2464146C5E738
:10357000DC1800200122A421C0B2FEF7E7BD002222
:10358000A421C0B2FEF7E2BDFFF7F9BF10B5054CAC
:10359000C820FEF703FE23781BB9FEF7D5FD0123F3
:1035A000237010BDDC1800207047000037B50023E1
:1035B0000F4C05468DF8073023781BB9FEF7C4FD84
:1035C000012323700324EDB2013CA8212846FEF715
:1035D000CFFD14F0FF048DF807009DF80730DBB233
:1035E00001D0512BF0D19DF8070003B030BD00BFD2
:1035F000DC18002000207047F8B50446CFB20E4614
:10360000FEF76CFDE4B203224FF4817101252046E0
:10361000FEF76CFD002240F617012046FEF766FD1E
:1036200000224FF481712046FEF760FD6C223921A3
:103630002046FEF75BFD032201212046FEF756FDE2
:103640003220FEF77FFDAD4B40F60F72052120467C
:103650001D60FEF74BFD2A4640F201612046FEF751
:1036600045FD2A4640F202612046FEF73FFD022258
:1036700040F204612046FEF739FD022240F2056166
:103680002046FEF733FD40F6337204212046FEF754
:103690002DFD00224FF488612046FEF727FD002211
:1036A0004FF48A612046FEF721FD46F25032022196
:1036B0002046FEF71BFD022240F206612046FEF77F
:1036C00015FD022240F207612046FEF70FFD02229F
:1036D0004FF4C1612046FEF709FD022240F2096164
:1036E0002046FEF703FD0D224FF4E0612046FEF771
:1036F000FDFC44F210024FF440712046FEF7F6FC48
:10370000002240F202312046FEF7F0FC0A224FF47C
:1037100002712046FEF7EAFC2A464FF4007120466B
:10372000FEF7E4FC002F00F083804FF44072032189
:10373000204643F20337FEF7D9FC0022222120461F
:10374000FEF7D4FC002223212046FEF7CFFC032203
:1037500036212046FEF7CAFC40F27F122521204682
:10376000FEF7C4FC4FF4807223212046FEF7BEFC16
:1037700043F2030229462046FEF7B8FC05225121F8
:103780002046FEF7B3FC43F2033229462046FEF7FB
:10379000ADFC222260212046FEF7A8FC49F62572E6
:1037A0004C212046FEF7A2FC0F20FEF7CBFC2A4658
:1037B0002D212046FEF79AFC2A462E212046FEF7B0
:1037C00095FC4FF44C7203212046FEF78FFC332208
:1037D00054212046FEF78AFCFA20FEF7B3FCEE22C5
:1037E00060212046FEF782FCC0224FF4C2612046D1
:1037F000FEF77CFCC02240F211612046FEF776FC09
:1038000000224FF484612046FEF770FCC02240F293
:1038100012612046FEF76AFCC02240F21361204686
:10382000FEF764FC002240F222412046FEF75EFCD7
:10383000FF2E60D947F0130201212046FEF756FC07
:103840004FF4605240F211412046FEF74FFC022037
:10385000FEF778FC8B2218212046FEF747FC022059
:10386000FEF770FC40F28B121A212046FEF73EFC58
:103870000220FEF767FC202229212046FEF736FCB5
:103880000220FEF75FFC20222A212046FEF72EFCB4
:103890000220FEF757FC112228212046FEF726FCC5
:1038A0000220FEF74FFC0220FEF74CFC7F221C2179
:1038B0002046FEF71BFC40F27F121D212046FEF73A
:1038C00015FCC0224FF480612046FEF70FFC4FF438
:1038D000E07240F201412046FEF708FCC02240F2AF
:1038E00004412046FEF702FC4FF4E07240F205412D
:1038F0002046FEF7FBFB0020F8BD00BFE4180020C7
:10390000012910B5C4B20FD003292DD140F60F7292
:1039100005212046FEF7EAFB012240F20161204624
:10392000FEF7E4FB01220CE040F60C4205212046A4
:10393000FEF7DCFB002240F201612046FEF7D6FBD9
:10394000002240F202612046FEF7D0FB022240F244
:1039500004612046FEF7CAFB0222204640F20561C0
:10396000FEF7C4FB002010BD40F2033205212046C3
:10397000FEF7BCFB012240F201612046FEF7B6FBD8
:10398000012240F202612046FEF7B0FB002240F225
:1039900004612046FEF7AAFB0022DEE708B545F2E7
:1039A0002263C0B2994220D00BD842F6113399421B
:1039B00019D0B1F57A5F14D0B1F5FA5F0AD083223D
:1039C00009E04AF64443994211D00A4B9942F6D194
:1039D000A32200E003224FF40471FEF787FB0020CE
:1039E00008BD3322F7E71322F5E74322F3E77322FA
:1039F000F1E700BF007701000022C0B208B5114610
:103A0000FEF774FB0020014B186008BDE41800208D
:103A1000FEF76ABB10B50446FEF760FB0021E0B27A
:103A2000FEF778FB10BD00000F4B1B6810B583B18B
:103A30000129C4B20FD14FF400724FF484612046C3
:103A4000FEF754FB4FF4007240F222412046FEF78D
:103A50004DFB002010BD00224FF484612046FEF78C
:103A600045FB0022F0E700BFE41800200021FFF72B
:103A7000DBBF0021FFF7D8BF38B501210546FFF7AE
:103A8000D3FF04460122E8B20221FEF72FFB2046B5
:103A900038BD0000F8B5194F04460E463D6855B3D1
:103AA0000121FFF7C1FF022E054624D0E4B24FF4F6
:103AB00000724FF484612046FEF718FB4FF4007249
:103AC00040F222412046FEF711FB00222D21204624
:103AD000FEF70CFB00222E212046FEF707FB0022FA
:103AE00005212046FEF702FB002220461146FEF784
:103AF000FDFA00233B602846F8BD00BFE418002013
:103B0000DFF834D0002103E00C4B5B584350043104
:103B10000B480C4B42189A42F6D30B4A02E00023A2
:103B200042F8043B094B9A42F9D300F013F80BF02A
:103B3000ADF80AF0CDF87047000005209068050840
:103B40000000002010110020101100204C1504204E
:103B5000FEE700000F490020D1F8883043F47003DD
:103B6000C1F888300C4B1A6842F001021A60986064
:103B70001A6822F0847222F480321A60074A5A606E
:103B80001A6822F480221A60D8604FF000638B60BC
:103B9000704700BF00ED00E0003802401030002404
:103BA00010B5044601F016FC4FF47A73B0FBF3F045
:103BB00000F078F8002221464FF0FF3000F034F892
:103BC000002010BD074A032008B5136843F40073B2
:103BD000136000F017F80F20FFF7E2FF01F0C8F8BC
:103BE000002008BD003C0240024A13680133136004
:103BF000704700BFE8180020014B1868704700BFED
:103C0000E818002007490302CA6803F4E06322F4BD
:103C1000E0621204120C134343F0BF6343F4003319
:103C2000CB60704700ED00E0164B30B5DC68C4F3A4
:103C30000224C4F10703251D042B28BF0423062DED
:103C40004FF0FF358CBF033C002405FA03F3002836
:103C500005FA04F521EA030322EA050203FA04F354
:103C600043EA02034FEA0313DBB204DA00F00F0069
:103C7000054A135430BD00F1604000F5614080F802
:103C80000033F7E700ED00E014ED00E04109012307
:103C900000F01F00024A834042F82130704700BF05
:103CA00000E100E00138B0F1807F0BD24FF0E0235B
:103CB000054AF0215861002082F8231007229861FC
:103CC0001A6170470120704700ED00E0036802466A
:103CD0001820D9B21039B1FBF0F010B5054C5F29AE
:103CE000205C506523F47F7020F0030088BF04300F
:103CF000106510BDB017050838B5044600283AD045
:103D000002680223416A80F835301C480429136890
:103D100000EA0300D4E9013543EA0503E56843EA14
:103D20000503256943EA0503656943EA0503A569B7
:103D300043EA0503E56943EA0503256A43EA050307
:103D400043EA000302BFD4E90B05284303430429D7
:103D500020461360536923F0070343EA010304BFBD
:103D6000A16A0B435361FFF7B1FF00200123E06418
:103D700084F8353038BD0120FCE700BF3F8010F0EB
:103D800038B50546E8B190F83530022B19D00368F4
:103D900000241A6822F001021A6021221C605C6073
:103DA0009C60DC601C615A61FFF790FF6A6D3F23E5
:103DB000934083602046EC6485F8344085F83540B4
:103DC00038BD0120FCE730B5054690F834000128E5
:103DD0004FF0020020D0012485F8350085F83440EA
:103DE0002C68206820F001002060206820F48020EA
:103DF00020606360AB68402B0FD1A260E160236854
:103E0000002043F01E032360636943F08003636175
:103E1000236843F00103236030BDA160E260EEE758
:103E2000026838B51368044623F001031360FFF7F6
:103E3000E3FE05462368186810F0010005D1012350
:103E400084F8340084F835300FE0FFF7D5FE401BCE
:103E5000B0F57A7FEED9E36C032043F02003E364EE
:103E6000002384F8350084F8343038BD70B5416DD6
:103E70000823056D04468B402A681A4215D0026853
:103E800011684E0711D5116821F004011160AB6073
:103E9000C36C43F00103C364042380F8353000236E
:103EA00080F83430836C03B19847616D464B2A68C3
:103EB0008B401A4216D022685169090612D5516901
:103EC00021F080015161AB60E36C43F00203E364D5
:103ED000042384F83530002384F83430A36C0BB10C
:103EE00020469847616D394B2A688B401A4216D09C
:103EF000226811688E0712D5116821F00201116045
:103F0000AB60E36C43F00403E364042384F83530CE
:103F1000002384F83430A36C0BB120469847616DC0
:103F200010222B688A40134216D0236819680807AC
:103F300012D51968490326D5AA601A68120301D45C
:103F4000312303E01B681E0302D5412384F835307A
:103F5000236C0BB120469847616D20222B688A4064
:103F600013422FD023681968C9062BD519684E0350
:103F700017D5AA601A6815030ED4636C13B32046D4
:103F8000BDE8704018471968C80503D4196821F0C6
:103F900008011960AA60D3E71B68180312D5E36B08
:103FA000ECE71968C90503D4196821F010011960FC
:103FB000AA60E36CE364112384F83530002384F8AD
:103FC0003430ECE770BD00BF0100800004008000C9
:103FD00030B5039D046845EA03454368B3F5403FA7
:103FE0006564E26330D185681DB1012D03D121F0F4
:103FF0007F41A16330BD022D01F47F0301F47F40B6
:10400000CAB207D1D90C800AC90241EA401141EA7B
:10401000D201EEE7032D01F07F410AD1DB0CC00A8B
:104020009B02C90F43EA401343EAD20343EAC1317A
:10403000DFE71B0D000B1B02090F43EA001343EAE5
:10404000121343EA0131D4E7E160D3E7704710B5BA
:10405000044630B390F8393003F0FF021BB980F802
:104060003820FFF7F3FF226802236168002084F8FC
:104070003930136823F440330B43A1681360536B4A
:1040800023F007030B43E1685363136C23F47F535E
:1040900023F03F030B4313640123E06384F83930BA
:1040A00010BD0120FCE773B590F83850012D4FF09A
:1040B000020513D00468012680F8395080F8386072
:1040C000256825F001052560069D0095FFF780FF16
:1040D000236800203343236002B070BD2846FBE70D
:1040E00003681B6870B50446D8070D4616D42368CC
:1040F000DB69990606D5FFF77FFD064623685A68F7
:10410000D2063BD52368022200209A6010229A60D2
:10411000012384F8380084F8393070BDFFF76CFD56
:10412000064623685A6812F00202E0D159685868BE
:1041300001F0200100F0010001430AD02021996024
:1041400001219960042384F8382084F83930012053
:10415000E3E76A1CE6D05DB9002384F83830E36BEE
:10416000032043F02003E363032384F83930D4E7CA
:10417000FFF742FD801BA842D3D9EDE75A6810072C
:1041800005D508229A60042384F83930DFE7691CDA
:10419000B5D0002DE3D0FFF72FFD801BA842ADD98D
:1041A000DDE70000F0B590F8382003460220012A30
:1041B00030D001222E4C83F8390083F838201A6859
:1041C00049BBDF69506AA7F10905196A20405C6A9A
:1041D000012D4FEA014196BF04F07F4641EA046198
:1041E0003143012D41EA070141EA0001986951621A
:1041F000916921F47F5121F03F0141EA0001916171
:1042000002D824F07F4494620122002083F83920F0
:1042100083F83800F0BD0D01D06903EB01110440B3
:104220001D44D1F81CC0086AACF109064F6A0004AD
:10423000012E95BF07F07F4140EA0760014340EA45
:104240000C0094BF41EA0C010443A86998BF0C43D9
:10425000012ED461116921F47F5121F03F0141EA1F
:1042600000011161D0D827F07F471762CCE700BF6B
:10427000F0FFFC002DE9F74F00234FF00109DFF8B4
:10428000C0816D4A09FA03FA0C680AEA04053AEAA1
:10429000040440F0B7804C6824F0100EBEF1020F09
:1042A00014D14FEAD30C03F0070B0F2700EB8C0C53
:1042B0004FEA8B0BDCF8206007FA0BF726EA0707BA
:1042C0000E6906FA0BF63E43CCF820604FEA430C29
:1042D0000326D0F800B00EF1FF3E06FA0CF7BEF14F
:1042E000010F2BEA070B6FEA070604F0030707FA32
:1042F0000CF747EA0B07076011D8876806EA070E34
:10430000CF6807FA0CF747EA0E078760476827EA85
:104310000A0EC4F300179F4047EA0E074760C768BC
:1043200037408E6806FA0CF63E43C660E60069D553
:10433000002623F0030703F0030C019607F18047E2
:10434000D8F844604FEA8C0C07F59C3746F4804659
:10435000C8F84460D8F8446006F480460196019E8F
:104360000F26D7F808E006FA0CF62EEA060E334EB2
:10437000B0424ED006F58066B0424CD006F580665D
:10438000B0424AD006F58066B04248D006F5806655
:10439000B04246D006F58066B04244D006F580664D
:1043A000B04242D006F58066B04240D006F5806645
:1043B000B0423ED006F58066B04214BF0A260926F8
:1043C00006FA0CF614F4803F46EA0E06BE606FEA69
:1043D000050716680CBF3E402E4314F4003F1660DC
:1043E00056680CBF3E402E4314F4801F56609668FA
:1043F0000CBF3E402E43A4029660D66854BF3E4098
:104400002E43D6600133102B7FF43CAF03B0BDE8E0
:10441000F08F0026D4E70126D2E70226D0E7032654
:10442000CEE70426CCE70526CAE70626C8E7072616
:10443000C6E70826C4E700BF003C01400000024078
:10444000003802402DE9F04F002288464FF0010964
:104450004FF0030A4FF00F0C4349DFF814B109FA8B
:1044600002F636EA080367D153000468D5080AFA51
:1044700003F300EB850524EA0304046002F007045B
:104480002F6AA4000CFA04F427EA04072F62F5430C
:10449000846824EA03048460446824EA060402F081
:1044A00003064460B600C4680CFA06FE24EA03045E
:1044B0002E4BC46022F00304984204F1804404F5BA
:1044C0009C34A7680EEA07073BD003F58063984247
:1044D00039D003F58063984237D003F58063984262
:1044E00035D0584535D003F50063984233D003F5F5
:1044F0008063984231D003F5806398422FD003F552
:10450000806398422DD003F58063984214BF0A233C
:104510000923B340BB420FD1A36823EA0E03A36073
:104520000B682B400B604B682B404B608B682B401B
:104530008B60CB681D40CD600132102A8FD1BDE861
:10454000F08F0023E5E70123E3E70223E1E70323FC
:10455000DFE70423DDE70523DBE70623D9E70723AD
:10456000D7E70823D5E700BF003C01400000024028
:10457000001002400369194214BF01200020704757
:104580000AB1816170470904FBE730B50468C1F3E3
:104590000901039D60682B4320F07F7043EA0243CA
:1045A00020F459300B4320F47F7020F003000343C4
:1045B000636030BD70B504460D46FFF71DFB06462F
:1045C0002368986910F0100010D170BD681C0ED0DF
:1045D00025B1FFF711FB801BA84207D90123032057
:1045E00084F83530002384F83430EEE723689A6984
:1045F0009106EBD51022DA612022DA619A69D2079E
:1046000001D40122DA615A68012022F0FF7222F4FB
:104610008B3222F4FF7222F001025A600423A3635A
:10462000002384F8350084F83430CEE770B50446B2
:104630000D46FFF7E1FA064623689B699B0701D503
:10464000002012E029462046FFF7B4FFA0B96A1CFB
:10465000F2D05DB9A36B032043F02003A3630123D1
:1046600084F83530002384F8343070BDFFF7C4FA85
:10467000801BA842E0D9EDE70120F6E72DE9F041E3
:10468000904605460E461C46FFF7B6FA0746B8F1B7
:10469000000F1DD02A68936936EA03031DD1631CFD
:1046A000F9D06CB1FFF7A8FAC01BA042F2D907E01D
:1046B000611C0ED024B1FFF79FFAC01BA04207D99E
:1046C0000123032085F83530002385F8343005E0D8
:1046D0002A68936936EA0303EAD10020BDE8F08135
:1046E000F7B51E464FF400530446089F0093154645
:1046F0004FF08073F2B2FFF748FF39462046FFF7CC
:1047000095FF38B1A36B042B02D0032003B0F0BD9A
:104710000120FBE7012E23680AD1EDB2002280219F
:1047200020469D623B46FFF7A9FF0028EED0ECE74C
:104730002A0A394620469A62FFF778FF0028E1D11D
:104740002368EAE7F7B51E464FF400530446089F76
:10475000009315460023F2B2FFF717FF39462046B3
:10476000FFF764FF38B1A36B042B02D0032003B022
:10477000F0BD0120FBE7012E23680AD1EDB2002233
:10478000402120469D623B46FFF778FF0028EED08F
:10479000ECE72A0A394620469A62FFF747FF0028CD
:1047A000E1D12368EAE770B504460D46FFF724FA25
:1047B000064623689B699B0601D5002010E0294628
:1047C0002046FFF7F7FE90B95DB9A36B032043F0D5
:1047D0002003A363012384F83530002384F83430A8
:1047E00070BDFFF709FA801BA842E2D9EDE701206E
:1047F000F6E7704710B50446002844D090F83530ED
:1048000003F0FF021BB980F83420FFF7F2FF022308
:1048100084F8353023681A6822F001021A60626851
:1048200022F070621A619A6822F400429A60D4E918
:10483000022112B301291DD142F400429A605A6844
:10484000002042F0007242F400425A60D4E9042190
:104850000A43A16942EA0122DA60D4E907210A4346
:104860001A601A6842F001021A600123A06384F8FA
:10487000353010BD42F404429A600229DFD14FF472
:1048800000625A60DBE70120F3E7704710B5044689
:1048900080B10268022380F83530136823F00103E9
:1048A0001360FFF7F2FF0020A06384F8340084F85F
:1048B000350010BD0120FCE72DE9F74F90F8357069
:1048C00004468846DDF83090012FBDF83450DDF8FD
:1048D00038A0FEB240F08580B9F1000F1CD0DDB1E8
:1048E0000768BF6917F400477BD190F834C0BCF16A
:1048F000010F76D04FF0520C80F8346080F835C04C
:104900008763CDF800A0FFF7EBFE48B1A36B84F8F6
:104910003470042B00D00326304603B0BDE8F08F7E
:10492000FF2D009010D9FF224FF0807341462046A2
:104930001746FFF72AFE013DADB251462046FFF76C
:1049400075FE50B1A36BE4E74FF00073EAB2414645
:1049500020462F46FFF719FEEDE72368013F19F8BF
:10496000012B9A6218D11FFA85FBBBF1000F15D0FD
:1049700053463A4680212046FFF780FE0028CAD1E0
:10498000BBF1FF0F009723D9FF224FF08073414600
:1049900020461746FFF7F9FD013DCED219212046EA
:1049A000FFF701FF0028CDD1236820220646DA61F7
:1049B0005A6822F0FF7222F48B3222F4FF7222F046
:1049C00001025A60012384F8340084F83530A3E7EB
:1049D0004FF00073EAB2414620462F46FFF7D5FD5F
:1049E000DAE7022698E72DE9F74F90F8357004468C
:1049F0008846DDF83090012FBDF83450DDF838A03E
:104A0000FEB240F08980B9F1000F1CD0DDB107681B
:104A1000BF6917F400477FD190F834C0BCF1010F93
:104A20007AD04FF0620C80F8346080F835C087632C
:104A3000CDF800A0FFF786FE48B1A36B84F8347070
:104A4000042B00D00326304603B0BDE8F08F4FF4AE
:104A50001053FF2D009339D9FF224FF08073414648
:104A600020461746FFF791FD013DADB253460022A7
:104A700004212046FFF702FE0028E3D12368013F0E
:104A80005B6A09F8013B18D11FFA85FBBBF1000FE7
:104A900015D053463A4680212046FFF7EFFD002807
:104AA000D0D1BBF1FF0F009719D9FF224FF08073CF
:104AB000414620461746FFF768FD013DD6D2192131
:104AC0002046FFF770FE98B1A36BB9E74FF0007373
:104AD000EAB2414620462F46FFF757FDC4E74FF0A4
:104AE0000073EAB2414620462F46FFF74EFDE4E749
:104AF000236820220646DA615A6822F0FF7222F407
:104B00008B3222F4FF7222F001025A60012384F8F2
:104B1000340084F8353096E7022694E790F83500A3
:104B20007047D2010068D1F800C0843283182DE9A3
:104B3000F043C6680CF101075D684FF0000E4C6849
:104B4000C6F30B4605F47045D1F8189026445D6015
:104B5000C568C5F30B453D4445EA06455D60C6683A
:104B6000CD68C6F30A062E449D6805F470459D6025
:104B70008D68C7680135C7F30A073D4445EA064515
:104B80000E699D601D6925F007051D611E619D6907
:104B900091F8327091F83180C3F818E091F83050F4
:104BA00045EA096545EA082545EA07459D615D69CD
:104BB00025F0FF055D614D695D61DD6925F4E06506
:104BC00025F00705DD61D1E907573D43DD619D6AA9
:104BD0004D6AC3F828E09D621EB3012E23D0B51E96
:104BE000022D22D9072E14BF01250225DE6AA4EB6F
:104BF0000C0406F0E0266C43DE6203348E6AC96A58
:104C00006E4344EA0644DC621C6B24F4FF6424F027
:104C100007041C631963835843F001038350BDE804
:104C2000F0830425E2E70325E0E70225DEE770478D
:104C300038B50446002867D090F8A13003F0FF0291
:104C40001BB980F8A020FFF7F2FF022384F8A130FF
:104C500023689A6922F070429A619969D4E9012027
:104C60000243E06802432069024360690A4327491E
:104C70009A619A680A409A609A6842EA0042A0697A
:104C80000243E0699A60DA680A40DA60DA6842EA68
:104C90000042206A0243606ADA601A690A401A61B7
:104CA0001A6942EA0042A06A02431A615A690A403C
:104CB000E16A5A615A6942EA0142216B0A435A6128
:104CC000DA6A94F8350002F07F4294F83610DA621E
:104CD000DD6A94F834202A4342EA0022002042EAA6
:104CE0000142DA625A6B42F004025A635A6B42F094
:104CF00002025A639A6942F001029A610123C4F8E0
:104D0000A40084F8A13038BD0120FCE700F800F0D1
:104D10002DE9F04190F8A03006460F469446012B4D
:104D20004FF002001FD034244FF001080D4686F8E2
:104D3000A10004FB026486F8A08038340FCD0FC4B4
:104D40000FCD0FC40FCD0FC42B68304662463946D5
:104D50002360FFF7E6FE33680020C3F8248086F85E
:104D6000A18086F8A000BDE8F08190F8A10070470E
:104D700070470000002337B50193194B194C1A6C8A
:104D800042F080521A641B6C03F080530193019B24
:104D9000236843F480332360FEF72EFF05466368E3
:104DA000DA030CD523680F4D43F400332360FEF77C
:104DB00023FF04466B689B030AD5002006E0FEF73C
:104DC0001BFF401BB0F57A7FE9D9032003B030BD4B
:104DD000FEF712FF001BB0F57A7FEBD9F5E700BFB5
:104DE00000380240007000400368F7B5DE07054652
:104DF00058D42B689C0700F1C7802B681A0700F174
:104E000015812B685B0747D50023A24C0193A24B69
:104E10001A6C42F080521A641B6C03F080530193A9
:104E2000019B236843F480732360FEF7E5FE06468A
:104E30002368D90540F11F81974C41F28837236FD1
:104E400023F001032367236F23F004032367236FF9
:104E500023F001032367FEF7CFFE0646236F9A0770
:104E600000F11081236F23F001032367AB68012B4E
:104E700040F01481236F23F004032367236F43F072
:104E800001032367FEF7B8FE834E044641F28837DC
:104E9000336F9B0740F12381AA69002A40F02681E5
:104EA000002015E07C4B9A6802F00C02042A07D01F
:104EB0009A6802F00C02082A0CD15B68580209D5E6
:104EC000754B1B68990394D56B68002B91D1012019
:104ED00003B0F0BD704C236823F480332360236853
:104EE00023F480232360236823F480332360FEF7B8
:104EF00083FE064623689A031ED4236823F4803376
:104F000023606B68B3F5803F1ED1236823F48023B0
:104F10002360236843F480332360FEF76DFE5E4E0A
:104F2000044633689B033FF564AFFEF765FE001B44
:104F3000B0F5FA7FF5D905E0FEF75EFE801BB0F50F
:104F4000FA7FD7D90320C3E7B3F5A02F03D1236895
:104F500043F48023DCE7226822F480222260226866
:104F600022F480322260002BD7D1FEF745FE4A4E54
:104F7000044633689F037FF53CAFFEF73DFE001B00
:104F8000B0F5FA7FF5D9DDE7434B9A6812F00C0FC4
:104F900007D09A6802F00C02082A16D15B685E02FC
:104FA00013D43D490B689C0702D5EB68012B8ED1C9
:104FB0000868F82292FAA2F2B2FA82F22B699340C0
:104FC00020F0F80213430B6017E7EB68324CE3B1B3
:104FD000236843F001032360FEF70EFE06462368B4
:104FE00098070CD52168F82292FAA2F2B2FA82F25E
:104FF0002B69934021F0F80213432360FDE6FEF78E
:10500000FBFD801B6428EAD99CE7236823F0010399
:105010002360FEF7F1FD0646236899077FF5EDAEA4
:10502000FEF7EAFD801B6428F6D98BE76B691A4C02
:1050300083B1636F43F001036367FEF7DDFD06464E
:10504000636F9F073FF5DDAEFEF7D6FD801B64283A
:10505000F6D977E7636F23F001036367FEF7CCFDB2
:105060000646636F98077FF5CCAEFEF7C5FD801B43
:105070006428F6D966E7FEF7BFFD801B64287FF63B
:10508000D7AE5FE7FEF7B8FD801BB8427FF6E6AE0D
:1050900058E700BF0070004000380240052B03D1E4
:1050A000236F43F00403E8E6226F22F00402226734
:1050B000226F22F001022267002B7FF4E3AEFEF79D
:1050C0009BFD384E044641F28837336F98077FF5D1
:1050D000E3AEFEF791FD001BB842F6D932E7FEF7CA
:1050E0008BFD001BB8427FF6D3AE2BE72D4CA36897
:1050F00003F00C03082B3FF4EAAE2368022A23F0E6
:105100008073236040D1FEF777FD0646236899013E
:1051100034D447F6C07292FAA2F24FF44031B2FA98
:1051200082F291FAA1F14FF07060B1FA81F190FA38
:10513000A0F0D5E90763B0FA80F03343EE6A864009
:10514000686A9040AA6A3343164D52080343013AF5
:105150008A40134343F000536360236843F0807335
:105160002360FEF749FD04462B689A013FF598AE8F
:10517000FEF742FD001B6428F6D9E3E6FEF73CFD8E
:10518000801B6428C2D9DDE6FEF736FD054623689C
:105190009B017FF585AEFEF72FFD401B6428F6D9F5
:1051A000D0E600BF003802406B4A136803F00F03DB
:1051B0008B422DE9F04104460D466CD2136823F072
:1051C0000F030B431360136803F00F038B4202D0ED
:1051D0000120BDE8F0810268960706D55F49806826
:1051E0008B6823F0F00303438B60D50712D4226849
:1051F000500700F1A980130707D5584A2169936821
:1052000023F4604343EAC10393600F20FEF7C8FC18
:105210000020DEE76168514B01291A681CD112F4A5
:10522000003FD5D09A6841F288374C4E22F00302F5
:105230000A439A60FEF7E0FC63680546012B13D130
:10524000B36803F00C03042BD1D0FEF7D5FC401B50
:10525000B842F5D90320BCE7022902D112F0007F41
:10526000DFE712F0020FDCE7022B0FD1B36803F087
:105270000C03082BBBD0FEF7BFFC401BB842F5D98E
:10528000E8E7FEF7B9FC401BB842E3D8B36813F077
:105290000C0FF6D1ABE70268910706D52F4980685D
:1052A0008B6823F0F00303438B60D2070BD42A4AA8
:1052B000136823F00F032B431360136803F00F03ED
:1052C000AB4285D193E76168244B01291A681CD150
:1052D00012F4003F3FF47CAF9A6841F288381F4FC8
:1052E00022F003020A439A60FEF786FC63680646D2
:1052F000012B12D1BB6803F00C03042BD7D0FEF7AF
:105300007BFC801B4045F5D9A4E7022902D112F0AD
:10531000007FDFE712F0020FDCE7022B0FD1BB6842
:1053200003F00C03082BC2D0FEF766FC801B40453F
:10533000F5D98FE7FEF760FC801B40458AD8BB6833
:1053400013F00C0FF6D1B2E70449E0688B6823F440
:10535000E05303438B604EE7003C024000380240BC
:10536000194B9A6802F00C02042A28D0082A28D186
:105370005A68596802F03F02586811F4800F47F6E6
:10538000C07191FAA1F3B3FA83F300EA010020FAA5
:1053900003F014BF0D4B0E4BB3FBF2F358430A4B13
:1053A0004FF440325B6892FAA2F2B2FA82F203F44E
:1053B0004033D34001335B00B0FBF3F07047034848
:1053C00070470348704700BF0038024040787D01B5
:1053D0000024F40008B5FFF7C3FF084BF0229B68D8
:1053E00092FAA2F2B2FA82F203F0F003D340044A36
:1053F000D35CD840034B186008BD00BF00380240A2
:10540000B81705089C00002003682DE9F34713F046
:10541000010604460BD0AD4A916821F40001916069
:10542000466B91683143B6FA86F67609916013F4BB
:10543000002512D0A549E56BD1F88C20B5F5801F69
:1054400022F4401208BF012642EA050216BFB5FA4F
:1054500085F500256D09C1F88C20D90210D59B482F
:10546000216CD0F88C20B1F5800F22F4400242EA82
:105470000102C0F88C2000F01282002908BF01252B
:1054800013F0807F18BF01269A0643D50023904F62
:1054900001938E4B1A6C42F080521A641B6C03F01D
:1054A00080530193019B3B6843F480733B60FEF79C
:1054B000A3FB80463B68DB0540F1F381834F226B01
:1054C0003B6F534013F4407F24D03A6F3B6F22F47C
:1054D0004071900743F480333B673B6F23F4803384
:1054E0003B67396700F1E881236B03F44072B2F542
:1054F000407F764A40F0F081916823F0704021F4BB
:10550000F81120F4407001439160C3F30B03116F55
:105510000B4313672368DA060CD56C4AD2F88C105B
:1055200021F08071C2F88C10D2F88C10A06B01436E
:10553000C2F88C105F0408D56449606ED1F89020E1
:1055400022F440320243C1F89020180408D55F4984
:10555000A06ED1F8902022F440220243C1F890209E
:10556000D90308D55949E06ED1F8902022F44012B1
:105570000243C1F890209A0308D55449206FD1F80E
:10558000902022F440020243C1F890205F0608D523
:105590004E49606CD1F8902022F003020243C1F81A
:1055A0009020180608D54949A06CD1F8902022F027
:1055B0000C020243C1F89020D90508D54349E06C9C
:1055C000D1F8902022F030020243C1F890209A05D1
:1055D00008D53E49206DD1F8902022F0C002024348
:1055E000C1F890205F0508D53849606DD1F890204A
:1055F00022F440720243C1F89020180508D53349BF
:10560000A06DD1F8902022F440620243C1F89020AE
:10561000D90408D52D49E06DD1F8902022F44052EC
:105620000243C1F890209A0408D52849206ED1F889
:10563000902022F440420243C1F890205F0208D536
:105640002249A06FD1F8902022F080620243C1F875
:10565000902098020CD51D48E16FD0F89020B1F150
:10566000006F22F0006208BF01250A43C0F89020B5
:1056700013F0080F18BF0125590308D51349606FAF
:10568000D1F8902022F040720243C1F890201A0213
:1056900009D50E49D4F88000D1F8902022F080522C
:1056A0000243C1F89020012E00F01C81B3F1007F6D
:1056B00000F01881012D40F0F080044D2B6823F09C
:1056C00080532B60FEF798FA064603E0003802404C
:1056D000007000402B689F0000F1208221680E03BB
:1056E00001D5E36B23B1CD0247D5236C002B44D108
:1056F0007B4D4FF4403CD5F888009CFAACFE4FF04F
:10570000E046BEFA8EFED5F8882096FAA6F747F650
:10571000C079B7FA87F799FAA9F9B9FA89F99CFA21
:10572000ACFC4FF07068BCFA8CFC98FAA8F8B8FA98
:1057300088F896FAA6F6636900F4403002F0E04279
:10574000B6FA86F603FA09F9A36920FA0EF0FA40D0
:1057500003FA08F800FA0CF0B24049EA08030343E0
:105760001343C5F88830D5F88C30A26A23F4F85377
:10577000013A43EA0223C5F88C3088023ED5E36F34
:10578000B3F1006F3AD1564D4FF0706CD5F88800E8
:105790009CFAACFE4FF0E046BEFA8EFED5F88820AB
:1057A00096FAA6F747F6C079B7FA87F799FAA9F9F2
:1057B0004FF44038B9FA89F998FAA8F8B8FA88F895
:1057C0009CFAACFCBCFA8CFC96FAA6F6636900F075
:1057D000706002F0E042B6FA86F603FA09F9236A2D
:1057E00020FA0EF0FA4003FA08F800FA0CF0B24082
:1057F00049EA080303431343C5F888300A0740D534
:1058000037484FF07065D0F8882095FAA5F64FF428
:10581000403CB6FA86F6D0F888109CFAACF847F609
:10582000C077B8FA88F897FAA7F7B7FA87F79CFA1B
:10583000ACFCBCFA8CFC95FAA5F54FF0E04EB5FA3D
:1058400085F59EFAAEFE6369BEFA8EFE01F4403124
:1058500002F07062BB40E76921FA08F1F24007FAF2
:105860000EF701FA0CF1AA403B430B431343C0F877
:105870008830D0F88C30E26A23F440331343C0F808
:105880008C30174C236843F080532360FEF7B4F943
:10589000054623689B0040F14881002009E001266D
:1058A000EEE5FEF7A9F9A0EB080064287FF602AE4A
:1058B000032002B0BDE8F087FEF79EF941F2883977
:1058C00080463B6F99073FF50FAEFEF795F9A0EBC9
:1058D00008004845F5D9EBE7916821F4F81113E683
:1058E00000380240944E336823F080633360FEF743
:1058F00083F9074633681B0100F109812268D70745
:105900003CD5636BD3BBD6F884004FF4403E9EFA7F
:10591000AEF84FF07067B8FA88F8D6F8841097FAA6
:10592000A7FC47F6C07ABCFA8CFC9AFAAAFABAFA33
:105930008AFA9EFAAEFEBEFA8EFE97FAA7F74FF0ED
:10594000E049B7FA87F799FAA9F96368B9FA89F9CA
:1059500000F4403001F0706103FA0AFAA36820FAFB
:1059600008F021FA0CF103FA09F900FA0EF0B94037
:105970004AEA090303430B43C6F88430160303D5F0
:10598000E36BB3F5801F05D0D00248D5236CB3F587
:10599000800F44D1684E4FF4403ED6F884009EFA02
:1059A000AEF84FF0E047B8FA88F8D6F8841097FAC6
:1059B000A7FC47F6C07ABCFA8CFC9AFAAAFABAFAA3
:1059C0008AFA9EFAAEFE4FF07069BEFA8EFE99FA20
:1059D000A9F9B9FA89F997FAA7F7636800F4403092
:1059E00001F0E041B7FA87F703FA0AFAE36820FA10
:1059F00008F021FA0CF103FA09F900FA0EF0B940A7
:105A00004AEA090303430B43C6F88430D6F88C10E6
:105A1000636A21F01F01013B0B43C6F88C30D101B2
:105A20003BD5454E4FF0706ED6F884009EFAAEF826
:105A30004FF0E047B8FA88F8D6F8841097FAA7FC38
:105A400047F6C07ABCFA8CFC9AFAAAFA4FF44039AD
:105A5000BAFA8AFA99FAA9F9B9FA89F99EFAAEFE60
:105A6000BEFA8EFE97FAA7F7636800F0706001F047
:105A7000E041B7FA87F703FA0AFA236920FA08F037
:105A800021FA0CF103FA09F900FA0EF0B9404AEADA
:105A9000090303430B43C6F88430920125D547F62A
:105AA000C07696FAA6F64FF44030B6FA86F690FA2B
:105AB000A0F04FF07061B0FA80F091FAA1F14FF0D0
:105AC000E042B1FA81F192FAA2F26368B2FA82F28C
:105AD000B34026698640E06833438840A1680343A9
