:020000040800F2
:100000000000052029150008F9F70008FBF7000893
:10001000FDF70008FFF7000801F8000800000000E5
:1000200000000000000000000000000003F80008CD
:1000300005F800080000000007F8000809F80008AB
:100040007915000879150008791500087915000858
:100050007915000879150008791500087915000848
:100060007915000879150008791500087915000838
:100070007915000879150008791500087915000828
:100080007915000879150008791500087915000818
:100090007915000879150008791500087915000808
:1000A00079150008791500087915000879150008F8
:1000B00079150008791500087915000879150008E8
:1000C00079150008791500087915000879150008D8
:1000D00079150008791500087915000879150008C8
:1000E00079150008791500087915000879150008B8
:1000F00079150008791500087915000879150008A8
:100100007915000879150008791500087915000897
:100110007915000879150008791500087915000887
:100120007915000879150008791500087915000877
:100130000DF80008791500087915000879150008F0
:100140007915000879150008791500087915000857
:10015000791500087915000819F8000879150008C4
:100160007915000879150008791500087915000837
:1001700079150008791500087915000800000000BD
:100180007915000879150008791500087915000817
:100190007915000879150008791500087915000807
:1001A00079150008791500087915000879150008F7
:1001B00079150008791500087915000879150008E7
:0801C00079150008791500080B
:1001D0004B1C012B98BF70472DE9F003911C9B0825
:1001E000B1F80480B1F802900A8831F802CC80445A
:1001F000814402448444D9F80070D8F8006015683E
:10020000DCF80040C9F80060C8F80070CCF8005075
:100210001460D9F80470D8F804605568DCF804401C
:10022000C9F80460C8F80470CCF804505460083170
:10023000013BD5D1BDE8F00370474B1C012B98BFA3
:1002400070472DE9F003911C9B08B1F80480B1F8C8
:1002500002900A8831F802CC00EB580800EB5909EB
:1002600000EB520200EB5C0CD9F80070D8F800608B
:100270001568DCF80040C9F80060C8F80070CCF8D8
:10028000005014600831013BDFD1BDE8F003704736
:1002900081F0004102E000BF83F0004330B54FEA37
:1002A00041044FEA430594EA050F08BF90EA020FA4
:1002B0001FBF54EA000C55EA020C7FEA645C7FEA37
:1002C000655C00F0E2804FEA5454D4EB5555B8BF5A
:1002D0006D420CDD2C4480EA020281EA030382EACB
:1002E000000083EA010180EA020281EA0303362D5D
:1002F00088BF30BD11F0004F4FEA01314FF4801C30
:100300004CEA113102D0404261EB410113F0004F41
:100310004FEA03334CEA133302D0524263EB4303F8
:1003200094EA050F00F0A780A4F10104D5F1200E96
:100330000DDB02FA0EFC22FA05F2801841F10001F1
:1003400003FA0EF2801843FA05F359410EE0A5F1C5
:1003500020050EF1200E012A03FA0EFC28BF4CF0F6
:10036000020C43FA05F3C01851EBE37101F00045AC
:1003700007D54FF0000EDCF1000C7EEB00006EEBB9
:100380000101B1F5801F1BD3B1F5001F0CD3490843
:100390005FEA30004FEA3C0C04F101044FEA44529A
:1003A00012F5800F80F09A80BCF1004F08BF5FEA21
:1003B000500C50F1000041EB045141EA050130BD01
:1003C0005FEA4C0C404141EB0101013C28BFB1F513
:1003D000801FE9D291F0000F04BF01460020B1FA5E
:1003E00081F308BF2033A3F10B03B3F120020CDA31
:1003F0000C3208DD02F1140CC2F10C0201FA0CF00F
:1004000021FA02F10CE002F11402D8BFC2F1200C73
:1004100001FA02F120FA0CFCDCBF41EA0C01904029
:10042000E41AA2BF01EB0451294330BD6FEA040472
:100430001F3C1CDA0C340EDC04F11404C4F120025D
:1004400020FA04F001FA02F340EA030021FA04F36F
:1004500045EA030130BDC4F10C04C4F1200220FAC6
:1004600002F001FA04F340EA0300294630BD21FA04
:1004700004F0294630BD94F0000F83F4801306BFCA
:1004800081F480110134013D4EE77FEA645C18BFBE
:100490007FEA655C29D094EA050F08BF90EA020F55
:1004A00005D054EA000C04BF1946104630BD91EA4D
:1004B000030F1EBF0021002030BD5FEA545C05D150
:1004C0004000494128BF41F0004130BD14F580048F
:1004D0003CBF01F5801130BD01F0004545F0FE4103
:1004E00041F470014FF0000030BD7FEA645C1ABF38
:1004F000194610467FEA655C1CBF0B46024650EA6F
:10050000013406BF52EA033591EA030F41F400219A
:1005100030BD00BF90F0000F04BF0021704730B520
:100520004FF4806404F132044FF000054FF00001F5
:1005300050E700BF90F0000F04BF0021704730B5B6
:100540004FF4806404F1320410F0004548BF40428B
:100550004FF000013EE700BF42004FEAE2014FEAE0
:1005600031014FEA02701FBF12F07F4393F07F4FBB
:1005700081F06051704732F07F4208BF704793F0BE
:100580007F4F04BF41F40021704730B54FF46074D1
:1005900001F0004521F000411CE700BF50EA0102D4
:1005A00008BF704730B54FF000050AE050EA01027D
:1005B00008BF704730B511F0004502D5404261EBED
:1005C00041014FF4806404F132045FEA915C3FF42E
:1005D000D8AE4FF003025FEADC0C18BF03325FEACB
:1005E000DC0C18BF033202EBDC02C2F1200300FA7C
:1005F00003FC20FA02F001FA03FE40EA0E0021FAA1
:1006000002F11444BDE600BF70B54FF0FF0C4CF48E
:10061000E06C1CEA11541DBF1CEA135594EA0C0F40
:1006200095EA0C0F00F0DEF82C4481EA030621EA7B
:100630004C5123EA4C5350EA013518BF52EA0335B6
:1006400041F4801143F4801338D0A0FB02CE4FF068
:100650000005E1FB02E506F00042E0FB03E54FF098
:100660000006E1FB03569CF0000F18BF4EF0010E90
:10067000A4F1FF04B6F5007F64F5407404D25FEA8C
:100680004E0E6D4146EB060642EAC62141EA55513F
:100690004FEAC52040EA5E504FEACE2EB4F1FD0C81
:1006A00088BFBCF5E06F1ED8BEF1004F08BF5FEAFF
:1006B000500E50F1000041EB045170BD06F00046B1
:1006C00046EA010140EA020081EA0301B4EB5C045E
:1006D000C2BFD4EB0C0541EA045170BD41F4801156
:1006E0004FF0000E013C00F3AB8014F1360FDEBF7B
:1006F000002001F0004170BDC4F10004203C35DA57
:100700000C341BDC04F11404C4F1200500FA05F3D9
:1007100020FA04F001FA05F240EA020001F000427A
:1007200021F0004110EBD37021FA04F642EB0601F0
:100730005EEA430E08BF20EAD37070BDC4F10C041A
:10074000C4F1200500FA04F320FA05F001FA04F2DE
:1007500040EA020001F0004110EBD37041F10001CA
:100760005EEA430E08BF20EAD37070BDC4F12005D5
:1007700000FA05F24EEA020E20FA04F301FA05F23D
:1007800043EA020321FA04F001F0004121FA04F2E5
:1007900020EA020000EBD3705EEA430E08BF20EAB5
:1007A000D37070BD94F0000F0FD101F000464000EF
:1007B00041EB010111F4801F08BF013CF7D041EA71
:1007C000060195F0000F18BF704703F00046520075
:1007D00043EB030313F4801F08BF013DF7D043EA46
:1007E0000603704794EA0C0F0CEA135518BF95EAFC
:1007F0000C0F0CD050EA410618BF52EA4306D1D183
:1008000081EA030101F000414FF0000070BD50EAA1
:10081000410606BF1046194652EA430619D094EA2B
:100820000C0F02D150EA013613D195EA0C0F05D115
:1008300052EA03361CBF104619460AD181EA030169
:1008400001F0004141F0FE4141F470014FF0000021
:1008500070BD41F0FE4141F4780170BD70B54FF0BC
:10086000FF0C4CF4E06C1CEA11541DBF1CEA13553C
:1008700094EA0C0F95EA0C0F00F0A7F8A4EB05041E
:1008800081EA030E52EA03354FEA013100F0888015
:100890004FEA03334FF0805545EA131343EA1263DE
:1008A0004FEA022245EA111545EA10654FEA002693
:1008B0000EF000419D4208BF964244F1FD0404F54C
:1008C000407402D25B084FEA3202B61A65EB0305A8
:1008D0005B084FEA32024FF480104FF4002CB6EB65
:1008E000020E75EB030E22BFB61A754640EA0C00E5
:1008F0005B084FEA3202B6EB020E75EB030E22BF25
:10090000B61A754640EA5C005B084FEA3202B6EB65
:10091000020E75EB030E22BFB61A754640EA9C0024
:100920005B084FEA3202B6EB020E75EB030E22BFF4
:10093000B61A754640EADC0055EA060E18D04FEAB2
:10094000051545EA16754FEA06164FEAC30343EA52
:1009500052734FEAC2025FEA1C1CC0D111F4801F1F
:100960000BD141EA00014FF000004FF0004CB6E718
:1009700011F4801F04BF01430020B4F1FD0C88BFB7
:10098000BCF5E06F3FF6AFAEB5EB030C04BFB6EBC2
:10099000020C5FEA500C50F1000041EB045170BDB5
:1009A0000EF0004E4EEA113114EB5C04C2BFD4EBE2
:1009B0000C0541EA045170BD41F480114FF0000E66
:1009C000013C90E645EA060E8DE60CEA135594EAE2
:1009D0000C0F08BF95EA0C0F3FF43BAF94EA0C0FE5
:1009E0000AD150EA01347FF434AF95EA0C0F7FF45A
:1009F00025AF104619462CE795EA0C0F06D152EAAE
:100A000003353FF4FDAE1046194622E750EA410691
:100A100018BF52EA43067FF4C5AE50EA41047FF4A2
:100A20000DAF52EA43057FF4EBAE12E74FEA410205
:100A300012F5001215D211D56FF47873B3EB625230
:100A400012D94FEAC12343F0004343EA505311F057
:100A5000004F23FA02F018BF404270474FF00000E9
:100A6000704750EA013005D111F0004008BF6FF027
:100A7000004070474FF00000704700BF4A0011D29D
:100A800012F5001211D20DD56FF47873B3EB6252E8
:100A90000ED44FEAC12343F0004343EA505323FAF4
:100AA00002F070474FF00000704750EA013002D169
:100AB0004FF0FF3070474FF0000070474FEA41029F
:100AC000B2F1E04324BFB3F5001CDCF1FE5C0DD9AC
:100AD00001F0004C4FEAC0024CEA5070B2F1004FF6
:100AE00040EB830008BF20F00100704711F0804FF9
:100AF00021D113F13872BCBF01F00040704741F4BE
:100B000080114FEA5252C2F11802C2F1200C10FAC1
:100B10000CF320FA02F018BF40F001004FEAC123A5
:100B20004FEAD32303FA0CFC40EA0C0023FA02F349
:100B30004FEA4303CCE77FEA625307D150EA01331F
:100B40001EBF4FF0FE4040F44000704701F00040EF
:100B500040F0FE4040F40000704700BF7BB972B91E
:100B60000029BEBF00204FF0004106E008BF00286A
:100B70001CBF6FF000414FF0FF3000F057B8ADF1EF
:100B8000080C6DE904CE002909DB002B1ADB0EF0FE
:100B9000DDFEDDF804E0DDE9022304B070474042E9
:100BA00061EB4101002B1BDB0EF0D0FEDDF804E011
:100BB000DDE9022304B0404261EB4101524263EBA4
:100BC00043037047524263EB43030EF0BFFEDDF870
:100BD00004E0DDE9022304B0404261EB41017047CB
:100BE000524263EB43030EF0B1FEDDF804E0DDE9B1
:100BF000022304B0524263EB4303704753B94AB92E
:100C0000002908BF00281CBF4FF0FF314FF0FF3014
:100C100000F00CB8ADF1080C6DE904CE0EF096FEB4
:100C2000DDF804E0DDE9022304B07047704700BF3F
:100C300010F8012B11F8013B012A28BF9A42F7D086
:100C4000D01A7047034613F8012B002AFBD1181A5B
:100C500001387047000000000000000000000000A4
:100C600001F0FF01102A2BDB10F0070F08D010F85D
:100C7000013B013A8B422DD010F0070F42B3F6D161
:100C8000F0B441EA012141EA014122F007047FF07A
:100C900000070023F0E80256083C85EA010586EAD1
:100CA000010685FA47F5A3FA87F586FA47F6A5FA0D
:100CB00087F68EB9EED1F0BC01F0FF0102F0070219
:100CC00032B110F8013B013A83EA010313B1F8D1C4
:100CD0000020704701387047002D06BF35460338A5
:100CE000073815F0010F07D1013015F4807F02BFDE
:100CF000013015F4C03F0130F0BC0138704700BF2F
:100D00004FF0FF3C06E000BF4FF0010C02E000BFD7
:100D10004FF0010C4DF804CD4FEA410C7FEA6C5CBA
:100D20004FEA430C18BF7FEA6C5C1BD001B050EA5D
:100D3000410C0CBF52EA430C91EA030F02BF90EA48
:100D4000020F0020704710F1000F91EA030F58BF07
:100D5000994208BF90422CBFD8176FEAE37040F069
:100D6000010070474FEA410C7FEA6C5C02D150EA07
:100D7000013C07D14FEA430C7FEA6C5CD6D152EAC2
:100D8000033CD3D05DF8040B704700BF8446104687
:100D900062468C461946634600E000BF01B5FFF786
:100DA000B7FF002848BF10F1000F01BD4DF808ED56
:100DB000FFF7F4FF0CBF012000205DF808FB00BF27
:100DC0004DF808EDFFF7EAFF34BF012000205DF881
:100DD00008FB00BF4DF808EDFFF7E0FF94BF0120CE
:100DE00000205DF808FB00BF4DF808EDFFF7CEFFCF
:100DF00094BF012000205DF808FB00BF4DF808ED0E
:100E0000FFF7C4FF34BF012000205DF808FB00BFDE
:100E10004FEA410C7FEA6C5C02D150EA013C0AD1F6
:100E20004FEA430C7FEA6C5C02D152EA033C02D1E8
:100E30004FF0000070474FF0010070470348044B2B
:100E4000834202D0034B03B1184770479C1800201F
:100E50009C180020000000000548064B1B1AD90F03
:100E600001EBA301491002D0034B03B118477047AF
:100E70009C1800209C1800200000000010B5064CB3
:100E8000237843B9FFF7DAFF044B13B10448AFF3FB
:100E900000800123237010BDA01800200000000076
:100EA000903C010808B5054B1BB105490548AFF357
:100EB0000080BDE80840FFF7CFBF00BF0000000082
:100EC000A4180020903C0108002310B50446C0E996
:100ED0000033C0E90433836081814366C28183614A
:100EE000194608225C3000F0B3F80D4B63620D4BDD
:100EF000A3620D4BE3620D4B23630D4B24629C42B6
:100F000006D003F16802944202D0D0339C4205D14E
:100F100004F15800BDE8104000F0C6B810BD00BF95
:100F20006113000883130008BB130008E1130008D5
:100F3000BC180020024A0349034800F06BB800BF08
:100F400000000020F91200081000002041680C4B3E
:100F5000994210B5044601D000F0CEF9A168094BC2
:100F6000994202D0204600F0C7F9E168064B994249
:100F700004D02046BDE8104000F0BEB910BD00BF4F
:100F8000BC180020241900208C1900200C4B0D4A9D
:100F90000D4810B504211A600022FFF795FF0A4B97
:100FA00001221C46092103F16800FFF78DFF04F1BF
:100FB000D0000222BDE810401221FFF785BF00BF1C
:100FC000F4190020350F0008BC180020014800F07B
:100FD0006CB800BFF9190020014800F067B800BFE5
:100FE000F919002010B50446FFF7F0FF236A1BB182
:100FF000BDE81040FFF7F0BF044B2362044B1B68B1
:10100000002BF5D1FFF7C2FFF2E700BF4D0F00083C
:10101000F41900202DE9F8430746884614460026B7
:10102000D4E90195B9F1010905D52468002CF7D15F
:101030003046BDE8F883AB89012B07D9B5F90E30EE
:10104000013303D029463846C04706436835E9E7EF
:1010500002440346934200D1704703F8011BF9E7AD
:1010600070B50D4B0D4D5B1B9C100026A64209D19F
:1010700012F00EFE0A4D0B4B5B1B9C100026A64285
:1010800005D170BD55F8043B98470136EEE755F899
:10109000043B98470136F2E77CD702087CD7020868
:1010A0007CD7020880D7020870477047704700005D
:1010B00070B50F4E0C463168054611B900F0B8F90D
:1010C00030602146284600F0B3F9431C03D14FF0AD
:1010D000FF34204670BDC41C24F00304A042F8D0A5
:1010E000211A284600F0A4F90130F2D1EFE700BF41
:1010F000FC1900202DE9F843CD1C25F00305083527
:101100000C2D38BF0C25002D064601DBA94204D961
:101110000C2333600020BDE8F883DFF8D48000F0B2
:1011200013F9D8F800301C4644BB29463046FFF777
:10113000BFFF431C044658D1D8F800402746002F73
:1011400043D1002C4BD023683946304604EB0309C9
:1011500000F06EF9814542D121686D1A294630466A
:10116000FFF7A6FF01303AD023682B442360D8F85C
:1011700000305A6862BBC8F800700FE02268521B4A
:1011800020D40B2A17D96119A342256018BF5960D2
:10119000636808BFC8F8001062514B60304600F029
:1011A000D9F804F10B00231D20F00700C21A1CBF60
:1011B0001B1AA350AFE76268A3420CBFC8F8002017
:1011C0005A60EBE723466468AEE73C467F68B6E7C3
:1011D0001A465B68A342FBD100235360DEE70C2371
:1011E0003360304600F0B6F894E70560D6E700BFFC
:1011F000001A0020B1F90C202DE9F0411607054630
:101200000C4651D44B68002B02DC0B6C002B49DDE3
:10121000E66A002E46D0002312F480522F682B601D
:1012200031D0626DA389590705D56368D21A636B03
:101230000BB1236CD21A0023E66A216A2846B04714
:10124000421CB4F90C3006D129681D2946D8294A18
:10125000CA40D60742D500226260D90422692260C2
:1012600004D5421C01D12B6803B96065616B2F6006
:10127000C1B104F14403994202D0284600F00AF9B2
:10128000002363630EE0216A01232846B04702462B
:10129000501CC7D12B68002BC4D01D2B01D0162B9E
:1012A0001AD12F6000201EE00F69002FFAD093079B
:1012B0000E6808BF4B690F6018BF0023A6EB070834
:1012C0008B60B8F1000FEDDD216AA66A43463A460D
:1012D0002846B047002808DCB4F90C3043F040033E
:1012E000A3814FF0FF30BDE8F0810744A8EB000870
:1012F000E7E700BF0100402038B50B6905460C4602
:1013000013B90025284638BD18B1036A0BB9FFF799
:1013100069FEB4F90C30002BF3D0626ED00704D410
:10132000990502D4A06DFFF7C0FE28462146FFF7BD
:1013300061FF636EDA070546E4D4A3899B05E1D417
:10134000A06DFFF7B3FEDDE70148FFF7AEBE00BFBB
:10135000F81900200148FFF7A9BE00BFF8190020C6
:1013600010B50C46B1F90E1000F050F80028ABBFD4
:10137000636DA3891B1823F48053ACBF6365A381FD
:1013800010BD2DE9F0411F468B89DB0505460C4653
:10139000164605D5B1F90E100223002200F024F8FC
:1013A000A389B4F90E1023F48053A38132463B463F
:1013B0002846BDE8F04100F04BB810B50C46B1F935
:1013C0000E1000F011F8B4F90C30421C0BBF23F4DE
:1013D000805343F48053A381A38118BF606510BD7F
:1013E000B1F90E1000F046B838B5074D044608466E
:1013F000114600222A601A4611F0A0FB431C02D1BC
:101400002B6803B1236038BD041A002038B5074D9E
:1014100004460846114600222A601A4611F096FB3F
:10142000431C02D12B6803B1236038BD041A00208D
:1014300038B5064D0023044608462B6011F08EFB9C
:10144000431C02D12B6803B1236038BD041A00206D
:1014500038B5074D04460846114600222A601A4650
:1014600011F08AFB431C02D12B6803B1236038BD05
:10147000041A002038B5064D0023044608462B60A8
:1014800011F034FB431C02D12B6803B1236038BD3B
:10149000041A002038B50546002941D051F8043C13
:1014A0000C1F002BB8BFE418FFF74EFF1D4A13684E
:1014B00033B9636014602846BDE83840FFF74ABF7F
:1014C000A34208D9206821188B4201BF19685B68C4
:1014D00009182160EDE71A465B680BB1A342FAD9FF
:1014E00011685018A0420BD1206801445018834263
:1014F0001160E0D118685B68536008441060DAE757
:1015000002D90C232B60D6E7206821188B4204BF38
:1015100019685B68636004BF091821605460CAE7FA
:1015200038BD00BF001A0020DFF834D0002103E0EE
:101530000C4B5B58435004310B480C4B42189A42F9
:10154000F6D30B4A02E0002342F8043B094B9A42CF
:10155000F9D300F013F8FFF783FD0DF031FC70476D
:101560000000052084D70208000000209C180020FD
:10157000A018002080F60320FEE700000F4900209D
:10158000D1F8883043F47003C1F888300C4B1A68E6
:1015900042F001021A6098601A6822F0847222F404
:1015A00080321A60074A5A601A6822F480221A6050
:1015B000D8604FF000638B60704700BF00ED00E023
:1015C000003802401030002410B5044601F006FC3B
:1015D0004FF47A73B0FBF3F000F078F80022214664
:1015E0004FF0FF3000F034F8002010BD074A032010
:1015F00008B5136843F40073136000F017F80F2068
:10160000FFF7E2FF01F0B8F8002008BD003C0240FF
:10161000024A136801331360704700BF081A0020A4
:10162000014B1868704700BF081A002007490302E1
:10163000CA6803F4E06322F4E0621204120C13435C
:1016400043F0BF6343F40033CB60704700ED00E02C
:10165000164B30B5DC68C4F30224C4F10703251D22
:10166000042B28BF0423062D4FF0FF358CBF033C0D
:10167000002405FA03F3002805FA04F521EA030320
:1016800022EA050203FA04F343EA02034FEA0313D2
:10169000DBB204DA00F00F00054A135430BD00F14C
:1016A000604000F5614080F80033F7E700ED00E0AE
:1016B00014ED00E04109012300F01F00024A8340BD
:1016C00042F82130704700BF00E100E00138B0F17E
:1016D000807F0BD24FF0E023054AF02158610020B3
:1016E00082F82310072298611A6170470120704721
:1016F00000ED00E0036802461820D9B21039B1FBB2
:10170000F0F010B5054C5F29205C506523F47F7024
:1017100020F0030088BF0430106510BDE83C0108CC
:1017200038B50446002831D002680223184980F8F1
:10173000353013681940D0E901300343E0680343B2
:101740002069034360690343A0690343E0690343DD
:10175000206A03430B43616A042902BFD4E90B05E5
:1017600028430343042920461360536923F00703E9
:1017700043EA010304BFA16A0B435361FFF7BAFFB9
:1017800000200123E06484F8353038BD0120FCE7F7
:101790003F8010F038B50546E8B190F83530022B9F
:1017A00019D0036800241A6822F001021A6021226D
:1017B0001C605C609C60DC601C615A61FFF79AFFF2
:1017C0006A6D3F23934083602046EC6485F8344083
:1017D00085F8354038BD0120FCE730B5054690F866
:1017E000340001284FF0020020D0012485F8350094
:1017F00085F834402C68206820F0010020602068C3
:1018000020F4802020606360AB68402B0FD1A26081
:10181000E1602368002043F01E032360636943F006
:1018200080036361236843F00103236030BDA1603E
:10183000E260EEE7026838B51368044623F001035E
:101840001360FFF7EDFE05462368186810F00100ED
:1018500005D1012384F8340084F835300FE0FFF718
:10186000DFFE401BB0F57A7FEED9E36C032043F036
:101870002003E364002384F8350084F8343038BD55
:1018800070B5416D0823056D04468B402A681A42E5
:1018900015D0026811684E0711D5116821F00401B6
:1018A0001160AB60C36C43F00103C364042380F890
:1018B0003530002380F83430836C03B19847616D74
:1018C000464B2A688B401A4216D022685169090695
:1018D00012D5516921F080015161AB60E36C43F096
:1018E0000203E364042384F83530002384F83430A1
:1018F000A36C0BB120469847616D394B2A688B4029
:101900001A4216D0226811688E0712D5116821F08C
:1019100002011160AB60E36C43F00403E364042351
:1019200084F83530002384F83430A36C0BB12046A2
:101930009847616D10222B688A40134216D02368A5
:101940001968080712D51968490326D5AA601A68CC
:10195000120301D4312303E01B681E0302D5412387
:1019600084F83530236C0BB120469847616D2022F6
:101970002B688A4013422FD023681968C9062BD5DB
:1019800019684E0317D5AA601A6815030ED4636C44
:1019900013B32046BDE8704018471968C80503D442
:1019A000196821F008011960AA60D3E71B681803C1
:1019B00012D5E36BECE71968C90503D4196821F067
:1019C00010011960AA60E36CE364112384F83530D8
:1019D000002384F83430ECE770BD00BF01008000C4
:1019E00004008000F0B5059D046845EA034543689E
:1019F000B3F5403F6564E2632FD1806801F07F4614
:101A000001F47F0301F47F42CDB203281AD8DFE846
:101A100000F00402060E21F07F41A163F0BDD90C55
:101A2000920AC90241EA421141EAD501F5E7DB0C0D
:101A3000D20A9B02F10F43EA421343EAD50343EA79
:101A4000C131EAE71B0D120B1B02360F43EA0213EA
:101A500043EA151343EA0631DFE7E160DEE770474A
:101A600010B5044620B390F8393003F0FF021BB9DB
:101A700080F83820FFF7F3FF02236168002084F824
:101A8000393023681A6822F440320A43A1681A6088
:101A90005A6B22F007020A43E1685A631A6C6FF32B
:101AA0000D020A431A640123E06384F8393010BD43
:101AB0000120FCE773B590F83850012D4FF0020576
:101AC00013D00468012680F8395080F83860256802
:101AD00025F001052560069D0095FFF783FF23682B
:101AE00000203343236002B070BD2846FBE7036843
:101AF0001A6870B50D46D107044607D5FFF790FD6B
:101B0000064623685A6812F0020214D0DA69960673
:101B100006D5FFF785FD064623685A68D20632D5FA
:101B2000022200209A6010229A60012384F8380073
:101B300084F8393011E05968586801F0200100F04C
:101B4000010001430AD020219960012199600423FA
:101B500084F8382084F83930012070BD6A1CD1D057
:101B60005DB9002384F83830E36B032043F0200391
:101B7000E363032384F83930EFE7FFF751FD801B5F
:101B8000A842BED9EDE75A68100705D508229A6029
:101B9000042384F83930DFE7691CBED0002DE3D080
:101BA000FFF73EFD801BA842B6D9DDE7F0B590F8FF
:101BB000382003460220012A2ED001222A4D83F824
:101BC000390083F838201A6839BB506ADF69284029
:101BD000A7F10905D3E90814012D4FEA014196BF89
:101BE00004F07F4641EA04613143012D41EA0701D7
:101BF00041EA00019869516291696FF30D0141EA70
:101C00000001916102D824F07F44946201220020F7
:101C100083F8392083F83800F0BDD4692C400D01D9
:101C200003EB01111D44D1F81CC0086AACF1090690
:101C3000496A0004012E96BF01F07F4740EA016027
:101C40003843012E40EA0C0040EA0400AC69D06140
:101C500010696FF30D0040EA04001061D6D821F03E
:101C60007F411162D2E700BFF0FFFC002DE9F74F82
:101C700000234FF00109DFF8BC816C4A09FA03FA2E
:101C80000C680AEA04053AEA040440F0B6804C689D
:101C900024F0100EBEF1020F14D14FEAD30C03F062
:101CA000070B0F2700EB8C0C4FEA8B0BDCF8206046
:101CB00007FA0BF726EA07070E6906FA0BF63E430A
:101CC000CCF820604FEA430C0326D0F800B00EF1A8
:101CD000FF3E06FA0CF7BEF1010F2BEA070B6FEA85
:101CE000070604F0030707FA0CF747EA0B0707603B
:101CF00010D8876806EA070ECF6807FA0CF747EA9C
:101D00000E078760476827EA0A0E27099F4047EABF
:101D10000E074760C76837408E6806FA0CF63E43E8
:101D2000C660E60069D5002623F0030703F0030C24
:101D3000019607F18047D8F844604FEA8C0C07F50C
:101D40009C3746F48046C8F84460D8F8446006F4EE
:101D500080460196019E0F26D7F808E006FA0CF699
:101D60002EEA060E324EB0424ED006F58066B042E4
:101D70004CD006F58066B0424AD006F58066B04287
:101D800048D006F58066B04246D006F58066B0427F
:101D900044D006F58066B04242D006F58066B04277
:101DA00040D006F58066B0423ED006F58066B0426F
:101DB00014BF0A26092606FA0CF614F4803F46EAF8
:101DC0000E06BE606FEA050716680CBF3E402E4344
:101DD00014F4003F166056680CBF3E402E4314F4C6
:101DE000801F566096680CBF3E402E43A40296604A
:101DF000D66854BF3E402E43D6600133102B7FF48B
:101E00003DAF03B0BDE8F08F0026D4E70126D2E74E
:101E10000226D0E70326CEE70426CCE70526CAE74C
:101E20000626C8E70726C6E70826C4E7003C0140A7
:101E300000000240003802402DE9F04F00228846A1
:101E40004FF001094FF0030A4FF00F0C4349DFF840
:101E500014B109FA02F636EA080367D153000468A0
:101E6000D5080AFA03F300EB850524EA03040460AD
:101E700002F007042F6AA4000CFA04F427EA04070E
:101E80002F62F543846824EA03048460446824EAEA
:101E9000060402F003064460B600C4680CFA06FEAD
:101EA00024EA03042E4BC46022F00304984204F198
:101EB000804404F59C34A7680EEA07073BD003F57D
:101EC0008063984239D003F58063984237D003F598
:101ED0008063984235D0584535D003F50063984269
:101EE00033D003F58063984231D003F58063984284
:101EF0002FD003F5806398422DD003F5806398427C
:101F000014BF0A230923B340BB420FD1A36823EABD
:101F10000E03A3600B682B400B604B682B404B609B
:101F20008B682B408B60CB681D40CD600132102A3E
:101F30008FD1BDE8F08F0023E5E70123E3E702231B
:101F4000E1E70323DFE70423DDE70523DBE70623DF
:101F5000D9E70723D7E70823D5E700BF003C0140B6
:101F6000000002400010024000690840003818BF1D
:101F7000012070470AB1816170470904FBE730B561
:101F80000468C1F30901039D60682B4320F07F7052
:101F900043EA024320F459300B4320F47F7020F0D1
:101FA00003000343636030BD70B504460D46FFF780
:101FB00037FB06462368986910F0100010D170BDF9
:101FC000681C0ED025B1FFF72BFB801BA84207D958
:101FD0000123032084F83530002384F83430EEE701
:101FE00023689A699106EBD51022DA612022DA6122
:101FF0009A69D20701D40122DA615A68012022F0DD
:10200000FF7222F48B3222F4FF7222F001025A6036
:102010000423A363002384F8350084F83430CEE72A
:1020200070B504460D46FFF7FBFA064623689B6928
:102030009B0701D5002012E029462046FFF7B4FF98
:10204000A0B96A1CF2D05DB9A36B032043F0200352
:10205000A363012384F83530002384F8343070BD45
:10206000FFF7DEFA801BA842E0D9EDE70120F6E792
:102070002DE9F041904605460E461C46FFF7D0FA82
:102080000746B8F1000F1DD02A68936936EA0303AA
:102090001DD1631CF9D06CB1FFF7C2FAC01BA0427E
:1020A000F2D907E0611C0ED024B1FFF7B9FAC01BCA
:1020B000A04207D90123032085F83530002385F895
:1020C000343005E02A68936936EA0303EAD1002038
:1020D000BDE8F081F7B51E464FF400530446089F53
:1020E000009315464FF08073F2B2FFF748FF394670
:1020F0002046FFF795FF38B1A36B042B02D00320D5
:1021000003B0F0BD0120FBE7012E23680AD1EDB238
:102110000022802120469D623B46FFF7A9FF002850
:10212000EED0ECE72A0A394620469A62FFF778FF9C
:102130000028E1D12368EAE7F7B51E464FF40053C3
:102140000446089F009315460023F2B2FFF717FFDD
:1021500039462046FFF764FF38B1A36B042B02D049
:10216000032003B0F0BD0120FBE7012E23680AD154
:10217000EDB20022402120469D623B46FFF778FFEA
:102180000028EED0ECE72A0A394620469A62FFF78B
:1021900047FF0028E1D12368EAE770B504460D4601
:1021A000FFF73EFA064623689B699B0601D500208F
:1021B00010E029462046FFF7F7FE90B95DB9A36B02
:1021C000032043F02003A363012384F83530002368
:1021D00084F8343070BDFFF723FA801BA842E2D99F
:1021E000EDE70120F6E7704710B50446002844D01B
:1021F00090F8353003F0FF021BB980F83420FFF768
:10220000F2FF022384F8353023681A6822F00102B5
:102210001A60626822F070621A619A6822F40042C1
:102220009A60D4E9022112B301291DD142F400427F
:102230009A605A68002042F0007242F400425A60EC
:10224000D4E904210A43A16942EA0122DA60D4E90F
:1022500007210A431A601A6842F001021A6001233A
:10226000A06384F8353010BD42F404429A6002291C
:10227000DFD14FF400625A60DBE70120F3E77047DB
:1022800010B5044680B10268022380F83530136827
:1022900023F001031360FFF7F2FF0020A06384F82E
:1022A000340084F8350010BD0120FCE72DE9F74F1C
:1022B00090F8357004468846DDF83090012FBDF85F
:1022C0003450DDF838A0FEB240F08D80B9F1000F37
:1022D0001DD0E5B10768BF6917F4004740F083805F
:1022E00090F834C0BCF1010F7DD04FF0520C80F853
:1022F000346080F835C08763CDF800A0FFF7EAFEB0
:1023000048B1A36B84F83470042B00D00326304608
:1023100003B0BDE8F08FFF2D009010D9FF224FF0E1
:102320008073414620461746FFF729FE013DADB2B6
:1023300051462046FFF774FE50B1A36BE4E74FF01F
:102340000073EAB2414620462F46FFF718FEEDE73C
:102350002368013F19F8012B9A6227D11FFA85FBE8
:10236000BBF1000F25D053463A4680212046FFF7A7
:102370007FFE0028CAD1BBF1FF0F009705F1FF3B9C
:102380000AD9FF224FF0807341462046FFF7F7FD40
:1023900017465B461D46CBE74FF00073EAB2414655
:1023A0002046FFF7ECFD2F465B46F3E76B1E002D42
:1023B000F0D119212046FFF7F0FE0028BDD1236897
:1023C00020220646DA615A6822F0FF7222F48B322C
:1023D00022F4FF7222F001025A60012384F83400D3
:1023E00084F8353093E7022691E72DE9F74F90F80E
:1023F000357004468846DDF83090012FBDF8345022
:10240000DDF838A0FEB240F09280B9F1000F1ED086
:10241000EDB10768BF6917F4004740F0888090F875
:1024200034C0BCF1010F00F082804FF0620C80F8E4
:10243000346080F835C08763CDF800A0FFF77CFEDC
:1024400048B1A36B84F83470042B00D003263046C7
:1024500003B0BDE8F08F4FF41053FF2D009335D932
:10246000FF224FF08073414620461746FFF787FD55
:10247000013DADB25346002204212046FFF7F8FD8E
:102480000028E3D12368013F5B6A09F8013B30D1A2
:102490001FFA85FBBBF1000F2ED053463A46802130
:1024A0002046FFF7E5FD0028D0D1BBF1FF0F0097D4
:1024B00005F1FF3B13D9FF224FF0807341462046C0
:1024C000FFF75DFD17465B461D46D3E74FF00073EF
:1024D000EAB2414620462F46FFF751FDC8E74FF0CC
:1024E0000073EAB241462046FFF749FD2F465B469E
:1024F000EAE76B1E002DE7D119212046FFF74DFEBC
:1025000008B1A36BA0E7236820220646DA615A6867
:1025100022F0FF7222F48B3222F4FF7222F00102C9
:102520005A60012384F8340084F835308FE702269E
:102530008DE790F835007047D2010068D1F800C0EF
:10254000843283182DE9F043C6680CF101075D68F9
:102550004FF0000E4C68C6F30B4605F47045D1F8F9
:1025600018902644A4EB0C045D60C568C5F30B45C8
:102570003D4445EA06455D60C668CD68C6F30A0677
:102580002E449D6805F470459D608D68C7680135CF
:10259000C7F30A073D4445EA06450E699D60072ECC
:1025A0001D6925F007051D611E6188BF012691F890
:1025B00032709D6991F83180C3F818E091F830507D
:1025C00045EA096545EA082545EA07459D615D69D3
:1025D00025F0FF055D614D695D61DD6925F4E0650C
:1025E00025F00705DD61D1E9075745EA0705DD61FB
:1025F0009D6A4D6AC3F828E09D629CBF0C4DAE5D9C
:10260000DD6A744305F0E0250334DD628D6AC96A32
:10261000754344EA0544DC621C6B6FF30A041C63D7
:102620001963835843F001038350BDE8F08300BF72
:10263000F03C01087047000038B50446002867D018
:1026400090F8A13003F0FF021BB980F8A020FFF73B
:10265000F1FF022384F8A13023689A6922F07042C6
:102660009A619969D4E901200243E0680243206934
:10267000024360690A4327499A619A680A409A604E
:102680009A6842EA0042A0690243E0699A60DA6807
:102690000A40DA60DA6842EA0042206A0243606A6D
:1026A000DA601A690A401A611A6942EA0042A06AAD
:1026B00002431A615A690A40E16A5A615A6942EA58
:1026C0000142216B0A435A61DA6A94F8350002F03C
:1026D0007F4294F83610DA62DD6A94F834202A4397
:1026E00042EA0022002042EA0142DA625A6B42F0DA
:1026F00004025A635A6B42F002025A639A6942F02A
:1027000001029A610123C4F8A40084F8A13038BD05
:102710000120FCE700F800F02DE9F04190F8A0302E
:1027200006460F469446012B4FF002001FD034247A
:102730004FF001080D4686F8A10004FB026486F8FC
:10274000A08038340FCD0FC40FCD0FC40FCD0FC4F0
:102750002B683046624639462360FFF7EDFE33684A
:102760000020C3F8248086F8A18086F8A000BDE888
:10277000F08190F8A100704770470000002337B542
:102780000193194B194C1A6C42F080521A641B6C5D
:1027900003F080530193019B236843F4803323604B
:1027A000FEF73EFF05466368DA030CD523680F4D3C
:1027B00043F400332360FEF733FF04466B689B034A
:1027C0000AD5002006E0FEF72BFF401BB0F57A7F0C
:1027D000E9D9032003B030BDFEF722FF001BB0F59E
:1027E0007A7FEBD9F5E700BF003802400070004067
:1027F0000368F7B5DE07054658D42B689C0700F13F
:10280000C7802B681A0700F115812B685B0747D535
:102810000023A24C0193A24B1A6C42F080521A641E
:102820001B6C03F080530193019B236843F4807376
:102830002360FEF7F5FE06462368D90540F11F81A7
:10284000974C41F28837236F23F001032367236FEE
:1028500023F004032367236F23F001032367FEF7AC
:10286000DFFE0646236F9A0700F11081236F23F0E5
:1028700001032367AB68012B40F01481236F23F021
:1028800004032367236F43F001032367FEF7C8FEA9
:10289000834E044641F28837336F9B0740F1238112
:1028A000AA69002A40F02681002015E07C4B9A6836
:1028B00002F00C02042A07D09A6802F00C02082ADF
:1028C0000CD15B68580209D5754B1B68990394D5E8
:1028D0006B68002B91D1012003B0F0BD704C2368D0
:1028E00023F480332360236823F480232360236848
:1028F00023F480332360FEF793FE064623689A0391
:102900001ED4236823F4803323606B68B3F5803FC3
:102910001ED1236823F480232360236843F480338B
:102920002360FEF77DFE5E4E044633689B033FF551
:1029300064AFFEF775FE001BB0F5FA7FF5D905E030
:10294000FEF76EFE801BB0F5FA7FD7D90320C3E7F0
:10295000B3F5A02F03D1236843F48023DCE722687A
:1029600022F480222260226822F480322260002B2E
:10297000D7D1FEF755FE4A4E044633689F037FF5D4
:102980003CAFFEF74DFE001BB0F5FA7FF5D9DDE751
:10299000434B9A6812F00C0F07D09A6802F00C02B1
:1029A000082A16D15B685E0213D43D490B689C0768
:1029B00002D5EB68012B8ED10868F82292FAA2F2B8
:1029C000B2FA82F22B69934020F0F80213430B60B5
:1029D00017E7EB68324CE3B1236843F0010323604F
:1029E000FEF71EFE0646236898070CD52168F822DC
:1029F00092FAA2F2B2FA82F22B69934021F0F80225
:102A000013432360FDE6FEF70BFE801B6428EAD922
:102A10009CE7236823F001032360FEF701FE0646CE
:102A2000236899077FF5EDAEFEF7FAFD801B642859
:102A3000F6D98BE76B691A4C83B1636F43F00103DE
:102A40006367FEF7EDFD0646636F9F073FF5DDAE5A
:102A5000FEF7E6FD801B6428F6D977E7636F23F065
:102A600001036367FEF7DCFD0646636F98077FF599
:102A7000CCAEFEF7D5FD801B6428F6D966E7FEF7DD
:102A8000CFFD801B64287FF6D7AE5FE7FEF7C8FD59
:102A9000801BB8427FF6E6AE58E700BF00700040EA
:102AA00000380240052B03D1236F43F00403E8E60E
:102AB000226F22F004022267226F22F001022267B5
:102AC000002B7FF4E3AEFEF7ABFD384E044641F237
:102AD0008837336F98077FF5E3AEFEF7A1FD001B43
:102AE000B842F6D932E7FEF79BFD001BB8427FF6ED
:102AF000D3AE2BE72D4CA36803F00C03082B3FF457
:102B0000EAAE2368022A23F08073236040D1FEF7E7
:102B100087FD06462368990134D447F6C07292FABD
:102B2000A2F24FF44031B2FA82F291FAA1F14FF0E1
:102B30007060B1FA81F190FAA0F0D5E90763B0FABC
:102B400080F03343EE6A8640686A9040AA6A334355
:102B5000164D52080343013A8A40134343F0005391
:102B60006360236843F080732360FEF759FD0446D9
:102B70002B689A013FF598AEFEF752FD001B6428C2
:102B8000F6D9E3E6FEF74CFD801B6428C2D9DDE6EA
:102B9000FEF746FD054623689B017FF585AEFEF7EF
:102BA0003FFD401B6428F6D9D0E600BF0038024044
:102BB0006B4A136803F00F038B422DE9F041044682
:102BC0000D466CD2136823F00F030B431360136898
:102BD00003F00F038B4202D00120BDE8F0810268B0
:102BE000960706D55F4980688B6823F0F00303439E
:102BF0008B60D50712D42268500700F1A980130713
:102C000007D5584A2169936823F4604343EAC10316
:102C100093600F20FEF7D8FC0020DEE76168514B7F
:102C200001291A681CD112F4003FD5D09A6841F2EC
:102C300088374C4E22F003020A439A60FEF7F0FCFC
:102C400063680546012B13D1B36803F00C03042B12
:102C5000D1D0FEF7E5FC401BB842F5D90320BCE714
:102C6000022902D112F0007FDFE712F0020FDCE749
:102C7000022B0FD1B36803F00C03082BBBD0FEF777
:102C8000CFFC401BB842F5D9E8E7FEF7C9FC401B72
:102C9000B842E3D8B36813F00C0FF6D1ABE7026883
:102CA000910706D52F4980688B6823F0F003034312
:102CB0008B60D2070BD42A4A136823F00F032B43EF
:102CC0001360136803F00F03AB4285D193E761688B
:102CD000244B01291A681CD112F4003F3FF47CAF49
:102CE0009A6841F288381F4F22F003020A439A6023
:102CF000FEF796FC63680646012B12D1BB6803F011
:102D00000C03042BD7D0FEF78BFC801B4045F5D974
:102D1000A4E7022902D112F0007FDFE712F0020FD0
:102D2000DCE7022B0FD1BB6803F00C03082BC2D0E9
:102D3000FEF776FC801B4045F5D98FE7FEF770FC67
:102D4000801B40458AD8BB6813F00C0FF6D1B2E760
:102D50000449E0688B6823F4E05303438B604EE73B
:102D6000003C024000380240194B9A6802F00C0205
:102D7000042A28D0082A28D15A68596802F03F024C
:102D8000586811F4800F47F6C07191FAA1F3B3FAB5
:102D900083F300EA010020FA03F014BF0D4B0E4B41
:102DA000B3FBF2F358430A4B4FF440325B6892FA9C
:102DB000A2F2B2FA82F203F44033D34001335B0053
:102DC000B0FBF3F07047034870470348704700BFFB
:102DD0000038024040787D010024F40008B5FFF778
:102DE000C3FF084BF0229B6892FAA2F2B2FA82F279
:102DF00003F0F003D340044AD35CD840034B18607F
:102E000008BD00BF00380240F83C01085C0000200B
:102E10002DE9F74F0268044612F001030BD0AC49CC
:102E20008B6823F400038B60636B88681843B3FAE4
:102E300083F35B09886012F4002612D0A448E66B85
:102E4000D0F88C10B6F5801F21F4401108BF012383
:102E500041EA060116BFB6FA86F600267609C0F8E2
:102E60008C10D00211D59A4D206CD5F88C10B0F58D
:102E7000800F21F4400141EA0001C5F88C1000F0F8
:102E80001082002808BF46F00106C2F300679106D1
:102E900047EA030743D500238E4D01938C4B1A6CF0
:102EA00042F080521A641B6C03F080530193019B23
:102EB0002B6843F480732B60FEF7B2FB80462B68CF
:102EC000DA0540F1F081824D226B2B6F534013F4F1
:102ED000407F24D02A6F2B6F22F4407143F480335B
:102EE0002B672B6F23F480332B679307296700F13F
:102EF000E581236B03F44072B2F5407F744A40F0E1
:102F0000ED81916823F0704021F4F81120F44070B5
:102F100001439160C3F30B03116F0B4313672568E3
:102F2000E9060CD56A4BD3F88C2022F08072C3F8E6
:102F30008C20D3F88C20A16B0A43C3F88C206A0440
:102F400008D5634A616ED2F8903023F440330B43C6
:102F5000C2F890302B0408D55D4AA16ED2F89030AB
:102F600023F440230B43C2F89030E80308D5584AB5
:102F7000E16ED2F8903023F440130B43C2F8903046
:102F8000A90308D5524A216FD2F8903023F44003A8
:102F90000B43C2F890306A0608D54D4A616CD2F8EE
:102FA000903023F003030B43C2F890302B0608D572
:102FB000474AA16CD2F8903023F00C030B43C2F8BF
:102FC0009030E80508D5424AE16CD2F8903023F001
:102FD00030030B43C2F89030A90508D53C4A216D57
:102FE000D2F8903023F0C0030B43C2F890306A054A
:102FF00008D5374A616DD2F8903023F440730B4303
:10300000C2F890302B0508D5314AA16DD2F8903026
:1030100023F440630B43C2F89030E80408D52C4AEF
:10302000E16DD2F8903023F440530B43C2F8903056
:10303000A90408D5264A216ED2F8903023F44043E3
:103040000B43C2F890306A0208D5214AA16FD2F82A
:10305000903023F080630B43C2F89030AB020DD563
:103060001B49E26FD1F89030B2F1006F08BF46F013
:10307000010623F000631343C1F89030680308D5BC
:10308000134A616FD2F8903023F040730B43C2F8BB
:103090009030290240F128810D4AD4F88010D2F8EE
:1030A000903023F080530B43C2F89030002F40F053
:1030B0002081C5F3C0053543012D40F0F080044D5B
:1030C0002B6823F080532B60FEF7AAFA064603E034
:1030D00000380240007000402B689F0000F13282EF
:1030E00021680E0301D5E36B23B1CD0247D5236CD4
:1030F000002B44D17B4D4FF4403CD5F888009CFA1E
:10310000ACFE4FF0E046BEFA8EFED5F8882096FA67
:10311000A6F747F6C079B7FA87F799FAA9F9B9FA85
:1031200089F99CFAACFC4FF07068BCFA8CFC98FAF8
:10313000A8F8B8FA88F896FAA6F6636900F4403061
:1031400002F0E042B6FA86F603FA09F9A36920FA1A
:103150000EF0FA4003FA08F800FA0CF0B24049EA1F
:10316000080303431343C5F88830D5F88C30A26AAE
:1031700023F4F853013A43EA0223C5F88C3088025D
:103180003ED5E36FB3F1006F3AD1564D4FF0706CFE
:10319000D5F888009CFAACFE4FF0E046BEFA8EFEF1
:1031A000D5F8882096FAA6F747F6C079B7FA87F7D8
:1031B00099FAA9F94FF44038B9FA89F998FAA8F8B8
:1031C000B8FA88F89CFAACFCBCFA8CFC96FAA6F625
:1031D000636900F0706002F0E042B6FA86F603FA26
:1031E00009F9236A20FA0EF0FA4003FA08F800FA07
:1031F0000CF0B24049EA080303431343C5F8883092
:103200000A0740D537484FF07065D0F8882095FA06
:10321000A5F64FF4403CB6FA86F6D0F888109CFA32
:10322000ACF847F6C077B8FA88F897FAA7F7B7FA74
:1032300087F79CFAACFCBCFA8CFC95FAA5F54FF02C
:10324000E04EB5FA85F59EFAAEFE6369BEFA8EFED3
:1032500001F4403102F07062BB40E76921FA08F1E5
:10326000F24007FA0EF701FA0CF1AA403B430B4378
:103270001343C0F88830D0F88C30E26A23F440332E
:103280001343C0F88C30174C236843F080532360FD
:10329000FEF7C6F9054623689B0040F15A810020DD
:1032A00009E00123F1E5FEF7BBF9A0EB0800642873
:1032B0007FF605AE032003B0BDE8F08FFEF7B0F94E
:1032C00041F2883980462B6F98073FF512AEFEF722
:1032D000A7F9A0EB08004845F5D9EBE7916821F480
:1032E000F81116E6003802401FB9B5F1007F7FF4EF
:1032F000E0AEDFF86C82D8F8003023F08063C8F8C5
:103300000030FEF78DF90746D8F800301A0100F1B9
:103310001281D4F800B01BF0010F3CD0636BD3BB1B
:10332000D8F884104FF4403E9EFAAEF94FF070602A
:10333000B9FA89F9D8F8842090FAA0FC47F6C0734E
:10334000BCFA8CFC93FAA3F3B3FA83F39EFAAEFEB5
:10335000BEFA8EFE90FAA0F04FF0E04AB0FA80F08C
:103360009AFAAAFA6768BAFA8AFA01F4403102F0C6
:10337000706207FA03F3A76821FA09F122FA0CF246
:1033800007FA0AFA01FA0EF1824043EA0A030B43F4
:103390001343C8F884301BF4002F03D0E36BB3F55C
:1033A000801F06D01BF4801F49D0236CB3F5800F1B
:1033B00045D1DFF8ACC14FF44038DCF8841098FAFE
:1033C000A8F94FF0E040B9FA89F9DCF8842090FAC6
:1033D000A0FE47F6C073BEFA8EFE93FAA3F3B3FACB
:1033E00083F398FAA8F84FF0706AB8FA88F89AFA56
:1033F000AAFABAFA8AFA90FAA0F0676801F44031A2
:1034000002F0E042B0FA80F007FA03F3E76821FA2D
:1034100009F122FA0EF207FA0AFA01FA08F18240DB
:1034200043EA0A030B431343CCF88430DCF88C20C6
:10343000636A22F01F02013B1343CCF88C301BF06F
:10344000807F3CD0DFF818C14FF07068DCF8841042
:1034500098FAA8F94FF0E040B9FA89F9DCF884202D
:1034600090FAA0FE47F6C073BEFA8EFE93FAA3F35D
:103470004FF4403AB3FA83F39AFAAAFABAFA8AFAFC
:1034800098FAA8F8B8FA88F890FAA0F0676801F0FE
:10349000706102F0E042B0FA80F007FA03F32769A6
:1034A00021FA09F122FA0EF207FA0AFA01FA08F1F2
:1034B000824043EA0A030B431343CCF884301BF0E9
:1034C000007F25D047F6C07797FAA7F74FF4403032
:1034D000B7FA87F790FAA0F04FF07061B0FA80F079
:1034E00091FAA1F14FF0E042B1FA81F192FAA2F221
:1034F0006368B2FA82F2BB4027698740E0683B43C9
:103500008840A16803439140154A0B43C2F88430B8
:10351000134F3B6843F080633B60FEF781F88046C1
:103520003B681B013FF5C5ADFEF77AF8A0EB08003C
:103530006428F5D9BEE6FEF773F8C01B64287FF651
:10354000E3AEB7E6FEF76CF8801B64287FF6C4ADE7
:10355000B0E6FEF765F8401B64287FF69CAEA9E64E
:1035600000380240734BF0B5036047F6C076724BEB
:10357000D3F8842096FAA6F1B1FA81F13240CA401C
:1035800042604FF44032D3F8841092FAA2F4B4FAB5
:1035900084F41140E1404FF070640161D3F884106D
:1035A00094FAA4F5B5FA85F52140E940C1604FF0E1
:1035B000E041D3F8845091FAA1F7B7FA87F70D40AC
:1035C000FD408560D3F8885096FAA6F7B7FA87F7DA
:1035D0003540FD404561D3F8885092FAA2F6B6FA1C
:1035E00086F61540F5400562D3F8885094FAA4F4A5
:1035F00005F07065B4FA84F425FA04F48461D3F814
:10360000884091FAA1F104F0E044B1FA81F124FA82
:1036100001F11F24C161D3F88C1094FAA4F4B4FA18
:1036200084F401F01F01E1404FF4F8544162D3F8F3
:103630008C1094FAA4F4B4FA84F401F4F851E14043
:103640008162D3F88C1092FAA2F201F44031B2FAFE
:1036500082F221FA02F2C262D3F88C2002F4401204
:10366000C263D3F88C2002F4400202649A6802F428
:1036700000024263D3F8902002F440324266D3F84D
:10368000902002F440228266D3F8902002F4401287
:10369000C266D3F8902002F440020267D3F890206B
:1036A00002F003024264D3F8902002F00C0282641C
:1036B000D3F8902002F03002C264D3F8902002F0D8
:1036C000C0020265D3F8902002F440724265D3F83C
:1036D000902002F440628265D3F8902002F44052B8
:1036E000C265D3F8902002F440420266D3F89020DD
:1036F00002F040724267D3F8902002F08062826745
:10370000D3F8902002F00062C267D3F8902002F054
:103710008052C0F8802099681A6F01F4F81102F401
:1037200040720A430263D3F88C3003F080738363E2
:10373000F0BD00BFF1FFFF0000380240B0F5002FE0
:1037400040D12E4BD3F88C2002F44012B2F5801FEA
:1037500046D0B2F5001F4CD0002A4CD15A6812F462
:10376000800F5A6808BF264B02F03F0218BF254B56
:10377000B3FBF2F3214AD2F88810D2F88800C0F3E4
:1037800088105843C1F30363B0FBF3F0D2F88C30D8
:10379000C3F3042312E01B4BB3FBF2F3174AD2F836
:1037A0008410D2F88400C0F388105843C1F3036337
:1037B000B0FBF3F0D2F88C3003F01F030133B0FB01
:1037C000F3F07047B0F5801F15D10C4BD3F88C2067
:1037D00002F44002B2F5800F02D0B2F5000FBAE752
:1037E0005A6812F4800F5A6802F03F02D3D1044B9A
:1037F000D2E7054870470020704700BF00380240FC
:103800000024F40040787D010080BB000129016B99
:1038100042680CBF09230123082905D122F00201C7
:10382000012908BF43F01003023A012A94BF43F074
:10383000600043F00400704738B50446FDF7F0FE21
:1038400005462268136823F48033136023681B68DD
:10385000DB030AD5FDF7E4FE401B0A28F6D9D4F8AD
:10386000803043F04003C4F8803038BD704700001A
:1038700038B50446002800F08B8090F87D3003F0C6
:10388000FF021BB980F87C20FFF7F0FF02232046DF
:1038900084F87D30FFF7D0FF204600F0B1F9E369EE
:1038A00083B1204600F0CEF90A22E36950435B025F
:1038B000B0FBF3F0B0FBF2F302FB1300092808BFE2
:1038C00001332362A16801295FD0023901298CBF2D
:1038D00000210121C90222682E4B1068256B03408C
:1038E0001360636810682B43656B2B43A56B2B43F8
:1038F000E56B2B43656A2B4325692B4365692B4395
:103900000343206A43EA0053A06A0B4313605368E1
:1039100023F4604323F00F035360A369516803430A
:10392000E06A0343A06C0B4353601B4B91680B4050
:103930009360236D91680343E06C03430B43216C58
:1039400001390B43616C013943EA01239360D36869
:1039500023F47D6323F00F031B041B0CD360D16899
:10396000D4E91530034300200B43216E43EA0143A1
:10397000E16D013943EA0123D3600123C4F88000DB
:1039800084F87C0084F87D3038BD4FF48061A2E774
:103990000120F9E710C005FF0080F8FF704738B537
:1039A0000446D0B1022300254FF0FF3280F87D306D
:1039B00003681D619A61FFF73FFF22682046536844
:1039C00043F008035360FFF7E9FF2846C4F880502E
:1039D00084F87C5084F87D5038BD0120FCE710B598
:1039E00090F87C300446012B20D00268012380F837
:1039F0007C301368C06E23F40033136058B9206F15
:103A000078B92046FFF718FF0123002084F87D30A5
:103A100084F87C0004E0FDF70DFF0028EFD00120C2
:103A200010BDFDF707FF0028EBD0F8E70220F7E70D
:103A300038B504461346002939D0002B37D090F80A
:103A40007D000128C5B234D194F87C00012830D023
:103A50000022E06E84F87C50C4F880201222A4F882
:103A6000683084F87D20144AA4F86A3061660264E4
:103A7000124AC263124A826422681C32FDF7ADFE0C
:103A800025682B68DB0303D42B6843F480332B6059
:103A900000212046FFF7BAFE2B69034300202B616B
:103AA0002B6843F400332B6084F87C0038BD012080
:103AB000FCE70220FAE700BF913B0008593B0008F1
:103AC000DD3B000838B5134604460A46002939D0C4
:103AD000002B37D090F87D100129C8B234D194F86A
:103AE0007C10012930D0002184F87C00206FC4F8BC
:103AF00080102221A4F8683084F87D101349A4F8BE
:103B00006A30626601641249C163124981642168A6
:103B10001C31FDF762FE25682B68DB0303D42B689C
:103B200043F480332B6000212046FFF76FFE2B69A2
:103B3000034300202B612B6843F400332B6084F88F
:103B40007C0038BD0120FCE70220FAE7D33B0008E7
:103B50009B3B0008DD3B000838B50368846B19689F
:103B600011F4807110D125682046A4F86A102B68E2
:103B700023F400332B60FFF749FE2B6923EA00038F
:103B80002B61012384F87D30204601F0ADFB38BD68
:103B9000806B08B501F0ACFB08BD38B50368846BD9
:103BA000196811F4807110D1256820462B6823F420
:103BB00000332B60A4F86A10FFF728FE2B6923EA74
:103BC00000032B61012384F87D30204601F078FC4E
:103BD00038BD806B08B501F077FC08BD10B5846B6B
:103BE0002046FFF7FCFE0123204684F87D3001F0DB
:103BF00071FC0023A4F86A3010BD90F87D00704776
:103C0000C368012B14D09A1E534253415B01826852
:103C10000168032A094A08BF43F001039142A2F652
:103C2000040202D00648814204D1C2F8003870472D
:103C30001023ECE7C2F8003C704700BF0458014075
:103C4000245801400368064A934202D0203293422E
:103C500003D14FF40020FFF771BD4FF48010FAE755
:103C60000458014003685A6B12F0450FFBD05A6BA1
:103C7000520703D5042203209A637047586B10F053
:103C8000010002D001209863704740F2FF529A630E
:103C90007047000070B505460E460068436B13F090
:103CA000450FFBD0436B5C0703D5042383630320DC
:103CB00070BD446B14F0010403D0012383631846E4
:103CC000F6E701F022F8B04201D01020F0E740F210
:103CD000FF5328682146836301F01AF803462848F9
:103CE00018400028E4D0002B27DB590027D49A0085
:103CF00027D4DE0027D41D0127D45C0127D4D901A5
:103D000027D41A0227D45E02DFD49D0225D4DC0218
:103D100025D4190325D45A0325D49E0325D4DD03C5
:103D200025D41C0425D4590425D49A0425D413F091
:103D3000080F14BF1A200020BAE71C20B8E709209A
:103D4000B6E70A20B4E70B20B2E70C20B0E70D205D
:103D5000AEE70E20ACE70F20AAE71120A8E712205B
:103D6000A6E71320A4E71420A2E71520A0E7162059
:103D70009EE717209CE718209AE7192098E700BFD4
:103D800008E0FFFD436A0022F0B51B0487B00D2652
:103D90000546019340230F46006801A90092049252
:103DA000CDE902634FF48063059300F09DFF28681E
:103DB000436B13F0450FFBD0436B5C0705D5042321
:103DC00003248363204607B0F0BD466B16F001065E
:103DD00002D001248463F5E700F097FF0D28044624
:103DE00001D01024EEE740F2FF5328683146836388
:103DF00000F08EFF0090009B009AC3F343233B70BA
:103E0000314B1340002B3CD0009B002B3BDB009B35
:103E100059003AD4009B9A0039D4009BDB0038D477
:103E2000009B1F0137D4009B5E01CBD4009BDD01BA
:103E300033D4009B180232D4009B5902D1D4009B8A
:103E40009A022ED4009BDB022DD4009B1F032CD49E
:103E5000009B5E032BD4009B9D032AD4009BD803B8
:103E600029D4009B190428D4009B5A0427D4009B12
:103E70009B0426D4009B13F0080F14BF1A240024BF
:103E8000A0E71C469EE71C249CE709249AE70A2425
:103E900098E70B2496E70C2494E70E2492E70F246E
:103EA00090E711248EE712248CE713248AE7142468
:103EB00088E7152486E7162484E7172482E7182468
:103EC00080E719247EE700BF08E0FFFD2DE9F041FF
:103ED00000238EB040221024064608270D460068B5
:103EE00003A9CDE90523CDE901334FF48063CDE982
:103EF0000374079300F0F8FE21463046FFF7CAFE30
:103F00000446002838D1736A372403A930681B049B
:103F10000494039300F0E8FE21463046FFF7BAFE12
:103F2000044648BB4FF0FF33302208A90C9030689C
:103F3000CDE908370223CDE90A2301230D9300F0D0
:103F4000F1FE0394332403A93068049400F0CCFEFE
:103F500021463046FFF79EFE044668B901AF40F2A5
:103F60002A483068436B13EA080F436B08D01907DF
:103F70000DD508230424836320460EB0BDE8F081EC
:103F80009B02EFD500F0A0FE47F8040BE9E7436B76
:103F90009A0702D502248463EEE7436B9B0603D5A0
:103FA000202306248363E7E740F2FF538363019BEA
:103FB0001BBA6B60029B1BBA2B60DDE77047F0B544
:103FC000066A054681F85660012E436AA1F854300E
:103FD000836A4FEA93720A70C3F383624A70C3F331
:103FE00001628A70C3F30742CA70C3F30722DBB2CF
:103FF0000A714B71C36A4FEA1362C3F303504FEA6D
:104000000212CA80CA8892B242EA0002C3F3C030E8
:10401000CA80C3F303420A72C3F307224872C3F390
:1040200080308872C3F34030C872C3F30030087325
:104030004FF0000048732C6B00F2DC809202C4F356
:10404000C0369B0002F4406203F47F730A610A6980
:104050001343C4F307220B610B6943EA94730B61AA
:10406000C4F3C2630B75C4F302634B75C4F34253CC
:104070008B75C4F38243CB75E30B03F006030B7619
:104080000B7E33430B760123D1F810C00E7E0F7ADE
:10409000023603FA07F7B3400F654FEAE37EA3FB4E
:1040A000073607FB0E660CF101070CFB0666A3FB47
:1040B00007373E44C1E91236C2F38013520002F0C2
:1040C0007E024B768A76C4F3C0128B7E13438B76C6
:1040D00004F07F03CB766B6BDA0FC3F381540A775E
:1040E000C3F341724A77C3F382628A779A0D02F072
:1040F0000C02CA77CA7F22430124CA77C3F3405215
:1041000081F82020002281F82120C3F3004281F8A9
:104110002220C3F3C03281F82320C3F3803281F818
:104120002420C3F3403281F82520C3F3003281F804
:104130002620C3F3812281F82720C3F30122C3F391
:10414000460381F8282081F8293081F82A40AB6B9A
:104150001A0EC3F3072681F82C20C3F307421B066F
:104160001202CA85CA8D92B23243CA850B63EB6BC9
:104170000A6B1E0E42EA06420A631A0A0E6B02F42A
:104180007F4232430A63C3F307220E6BDBB2324332
:104190000A6381F834302B6C1A0E81F835201A0C22
:1041A00012068A631A028E6B1B0202F47F029BB214
:1041B00032438A638A6B13438B636B6C8A6BC3F3E2
:1041C000035542EA13628A6391F83C202A43C3F301
:1041D000072581F83C201A0AC3F3460302F47062F3
:1041E000CA87CA8F92B22A43CA8781F8403081F8C1
:1041F0004140F0BD022E1DD11A0402F47C120A6166
:10420000220E0B6943EA02230B61C4F307430A69D8
:104210001343C4F307220B610B69013340F100061D
:10422000F60446EA5336DB04C1E912364FF4007354
:104230000B6541E729203FE72DE9F04F002591B0BC
:1042400004460E4605778DF81250FFF7B7FE762329
:104250000E950F9310ABCDE90C5513E907000AAB8F
:104260008DE80700CDE90A5520680ECB00F010FD5F
:1042700020688DF81350436823F48073436000F086
:104280002BFD01200AF08CFD206805A9436843F44A
:10429000807343604FF48063CDE905550993CDE900
:1042A000075500F021FD20684FF48032436BC3F3C3
:1042B000C01323B140F2FF538363002305E0436B37
:1042C000013AC3F3C013F4D103238DF813309DF8E2
:1042D000133003F0FF058BB19DF81330DBB28DF87E
:1042E00012309DF8123003F0FF05002B00F0AF8074
:1042F0009DF81200C0B211B0BDE8F08F4FF4D57137
:104300000823CDE90513402305A9079300F0ECFC31
:1043100020684FF48032436B03F04503003B18BF25
:1043200001230BB9002A75D1436B03F004030AB1D2
:10433000002B77D00423032583638DF813500023CB
:104340009DF81320002A75D101224FF08047226288
:10435000372505A90593069500F0C6FC2946204699
:10436000FFF798FC8DF813009DF8133003F0FF055C
:10437000002BB1D147F00047A84647F480174FF013
:1043800037094FF0400B4FF4806A05A92068CDF83B
:104390001480CDF82080CDF824A0CDE9069B00F054
:1043A000A3FC49462046FFF775FC8DF813009DF8E5
:1043B000133003F0FF09002B8ED1292305A92068B3
:1043C0000597CDE9063BCDE9089A00F08DFC206801
:1043D000436B13F0450FFBD0436B5B072CD50423D5
:1043E0004FF0030983638DF813909DF8133003F0A9
:1043F000FF01002B7FF470AF00F08AFC002805F16C
:1044000001054FF6FF731BDB9D42B8D11B238DF8CE
:10441000133061E7436B013A03F04503003B18BFDB
:1044200001237EE7436B5A0602D54023836384E76A
:10443000292582E71F468BE740F2FF538363D2E7CB
:104440009D42E3D0400044BF0223236244E720683A
:1044500000F046FC002800F0C280236A042B26D01E
:104460000221C023206805950895CDE906134FF475
:10447000806305A9099300F037FC2046FFF7F2FBA3
:104480000546002855D10146206800F041FC042172
:10449000A063206800F03CFC0821E063206800F085
:1044A00037FC0C212064206800F032FC6064236A31
:1044B000022B2BD9062B29D00120236A042B00F0D4
:1044C0009280606200040922C023059005A920683B
:1044D000CDE9062300F008FC2046FFF7C3FB0546A4
:1044E00038BB0146206800F013FC0421A06220685C
:1044F00000F00EFC0821E062206800F009FC0C21AD
:104500002063206800F004FC606312E00322402373
:1045100005A92068CDE9062300F0E6FB2068436B7F
:1045200013F0450FFBD0436B5B0736D504230325FF
:1045300083638DF812509DF81230002B7FF4D8AEB3
:1045400031462046FFF73BFD8DF812009DF81230F2
:1045500003F0FF02ABB9B6F85430072505A920686F
:104560001B04089205934023CDE906534FF4806362
:10457000099300F0B9FB29462046FFF78BFB8DF825
:10458000120004F1100393E80700231D8DE80700D3
:104590000ECB206800F07CFBAAE6456B15F0010508
:1045A00002D001258563C4E700F0AFFB032801D0EA
:1045B0001025BEE7206840F2FF532946836300F0D0
:1045C000A7FB10F4604F01D1000C76E7870408D4F4
:1045D0004504EDD401047FF56FAF0F25A9E725252C
:1045E000A7E71325A5E70025A3E7036A032BF0B58A
:1045F00005468DB00E4600F08A80022B00F28580C1
:10460000B1F5805F00F08380B1F5006F50D10021DB
:104610000068049100F07CFB10F0007073D10590ED
:1046200004A92846FFF752FC044618B9059B590314
:1046300003D4252420460DB0F0BD6B6A372706A9A8
:1046400009901B04286806934023CDE907734FF4B3
:1046500080630A9300F048FB39462846FFF71AFBAF
:1046600004460028E6D102230693062406A92868FA
:10467000079400F039FB21462846FFF70BFB044660
:104680000028D7D16B680693AB680793EB68CDE938
:1046900008366B690A93AB690B930CAB13E90700FF
:1046A00006AB8DE807000ECB286800F0F1FAC1E7F1
:1046B00000292ED10068049100F02AFB820122D447
:1046C00004A928460596FFF701FC04460028B1D14D
:1046D000059BDB03ADD56B6A372706A909901B0440
:1046E000286806934023CDE907734FF480630A934B
:1046F00000F0FAFA39462846FFF7CCFA04460028BB
:1047000098D10690B1E70E2494E7002492E727247D
:1047100090E726248EE730B5402287B000230C2591
:10472000044601A90068CDE90323CDE901354FF422
:104730008063059300F0D8FA29462046FFF7AAFACD
:1047400007B030BD2DE9F047044617460068002247
:104750008CB01026C2624FF0000C226A0D4601A9EF
:10476000022A04BF7F0A47EAC3574FF04003DDE93E
:104770001498CDE9026308BF4FF400794FF48063C9
:10478000CDF80490CDE904C300F0AEFA31462046DE
:10479000FFF780FA0646002840F087804FF0FF338D
:1047A000902006A90A96069308FB09F307930223B3
:1047B000CDE90803012320680B9300F0B3FAB8F1A8
:1047C000020F01A9206834BF11231223CDE9017320
:1047D00000F08AFAB8F1010F2FD912212046FFF715
:1047E00059FA80B10CB0BDE8F0875A6B11040BD5B3
:1047F0002F1F05F11C09206800F066FA47F8040F26
:104800004F45F8D1203523685A6B12F4957FECD0D0
:104810005B6BDF0509D5B8F1010F06D9236A022BBE
:1048200003D82046FFF777FF064623685A6B100728
:104830001FD5082204209A63D4E711212046FFF7F0
:1048400029FA0028CED140F22A4923685A6B12EA8D
:10485000090FDDD15A6B1204F8D52F1F05F11C0A80
:10486000206800F031FA47F8040F5745F8D1203599
:10487000EBE75A6B910702D502209863B2E75F6BB2
:1048800017F0200708D0202206209A63AAE700F03C
:104890001BFA45F8270001372068436B9A0201D5BF
:1048A0007B1CF4D140F2FF53836330469AE72DE935
:1048B000F04F06468DB017460068002210240D46C2
:1048C00000218DF80320C262326A022A04BF7F0AE7
:1048D00047EAC3574FF04003CDE902434FF48063EA
:1048E000DDE9169808BF4FF40079CDE9041301A95A
:1048F000CDF8049000F0F8F921463046FFF7CAF9E8
:10490000044600286CD1B8F1020F01A9306834BF09
:1049100018231923CDE9017300F0E6F9B8F1010F6E
:1049200030468CBF19211821FFF7B4F9044600283E
:1049300056D14FF0FF3308FB09F70A9006A9CDE9DD
:1049400006379023CDE90830012330680B9300F03F
:10495000E9F9B8F1010F2BD840F21A4933685A6BC4
:1049600012EA090F29D15A6B5104F8D53A1B1F2AB4
:104970004FD89308920718BF01334FEA830B05EB1A
:10498000830A554530683FD15C44E7E75A6B5204CF
:104990000FD53A1B1F2A2CD89308900718BF013354
:1049A0004FEA830A05EB83094D4530681CD1544416
:1049B00033685A6B12F48D7FE8D05B6BDC0508D549
:1049C000B8F1010F05D9336A022B02D83046FFF740
:1049D000A2FE33685A6B100726D5082204249A6376
:1049E00020460DB0BDE8F08F2946043500F06FF980
:1049F000DAE705F1200929460435306800F067F947
:104A00004D45F8D12034D3E72946043500F05FF94D
:104A1000B7E705F1200A29460435306800F057F958
:104A20005545F8D1203499E75A6B910702D50224F5
:104A30009C63D5E75A6BD20603D5102205249A63EE
:104A4000CEE740F2FF529A630DF103013046FFF7C3
:104A500099F904460028C3D19DF80330063B012B89
:104A6000F2D9BDE7436A002230B51B0487B00D259B
:104A700004460193402301A90068CDE902534FF495
:104A80008063CDE9042300F02FF929462046FFF783
:104A900001F9014648B9206800F03AF9C0F3432013
:104AA000043818BF012007B030BD0220FBE7704773
:104AB00038B50D460446C8B190F82C3003F0FF021B
:104AC0001BB980F82D20FFF7F2FF0223211D20687B
:104AD00084F82C3000F036F862682946206800F02F
:104AE0006DF80123002084F82C3038BD0120FCE74C
:104AF00038B590F82C3004460D46022BD8B20CD0B5
:104B00000223206884F82C3000F097F82B68022BE1
:104B100004D10523002084F82C3038BD0123F9E7A7
:104B200010B590F82C300446022BD8B209D00223DD
:104B3000206884F82C3000F0A5F80123002084F8C8
:104B40002C3010BD0A462DE9F041D2E90376D2E9B6
:104B500005541268D1F82480012A174AD1E9073E8A
:104B6000D1E901C143EA0E03D0F800E00FD043EAD7
:104B700008030EEA020243EA0C030B433B433343B0
:104B80002B432343134303600020BDE8F0810EEA6A
:104B9000020E43EA080343EA0E03D0F804E00EEAEB
:104BA000020E4CEA010203603A4332432A43224395
:104BB00042EA0E024260E7E70080FFFF4B68012AED
:104BC00003F1FF3C8B68F0B503F1FF330F698E6989
:104BD000CC684FEA03234D6907F1FF3706F1FF3632
:104BE00004F1FF3405F1FF3509684FEA07474FEA42
:104BF000066601F1FF314FEA04344FEA055543EAF6
:104C00000C130BD00B4382683B4302F070423343DA
:104C100023432B43134383600020F0BD0B43C26842
:104C20002C433B4302F0704233431343826802F04B
:104C30007042C36014438460EEE7002373B51546E9
:104C400001930446D1E900321343CA6843EA422380
:104C50008A68013A43EA42130193019B0361FCF71E
:104C6000DFFC0646A06910F0200003D06B1CF9D0D1
:104C700015B9032002B070BDFCF7D2FC801BA8421E
:104C8000F0D9F6E7436943EA4103436100207047E6
:104C900084B010B503AC84E80E000B46049942685A
:104CA0000B43059922F4FD420B43069922F07F0243
:104CB0000B4307990B4308990B43BDE8104013437E
:104CC00004B0436000207047D0F8800070470B6844
:104CD000C0F8803000207047032303600020704735
:104CE000006800F0030070470B6810B58360C2686D
:104CF000D1E901346FF30B022343CC6809692343E4
:104D00000B431343C360002010BD0069C0B270475D
:104D1000143082B00023084401930190019B18686D
:104D200002B070470B6810B543624B688362C26A79
:104D3000D1E9023422F0F70223430C694969234385
:104D40000B431343C362002010BD000070B58AB04E
:104D50000646FDF7EEFB002840F09B804E4B0025F9
:104D60004E4C9E4275610CBF4D4A4E4A9E42326087
:104D70004D4AC6E901254FF00102C6E90755C6E9CB
:104D8000032546D101958020236B4FF0020C05A925
:104D900043F080032363236B079503F080030193A3
:104DA000019B1223CDE9050304234048CDE908C344
:104DB000FCF75CFF4FF4807305A93C480593FCF7B2
:104DC00055FF02952A46236C0521482043F4000331
:104DD0002364236C03F400030293029B236A43F4CD
:104DE00000032362236A23F400032362FCF730FCF0
:104DF0004820FCF75FFC49202A460521FCF728FCE7
:104E00004920FCF757FC30460AB0BDE87040FDF77A
:104E1000EBB903954FF48072236B0221244843F0D1
:104E200002032363236B079503F002030393039BA1
:104E30001223CDE905230423CDE9081305A9FCF7C6
:104E400015FF4FF4007305A919480593FCF70EFFF1
:104E500004952A46236C05211F2043F40013236484
:104E6000236C03F400130493049B236A43F400139C
:104E70002362236A23F400132362FCF7E9FB1F205B
:104E8000FCF718FC20202A460521FCF7E1FB202036
:104E9000B7E70AB070BD00BF481A002000380240D2
:104EA000005C00400054004032279140001C02404A
:104EB0000004024030B54FF47A7485B00546029480
:104EC000BDF824400194089C0094FDF7EFF90446D6
:104ED00028B12846FDF7D4F92846FFF737FF2046CA
:104EE00005B030BD30B54FF47A7485B005460294F4
:104EF000BDF824400194089C0094FDF776FA04461E
:104F000028B12846FDF7BCF92846FFF71FFF2046C9
:104F100005B030BD30B5044687B0D0B90E4B022580
:104F2000009001A91A6B0D4842F480721A631B6B42
:104F300003F480730093009B0123CDE90153039395
:104F400003230493FCF792FE224629460348FDF70B
:104F500011F807B030BD00BF003802400020024009
:104F600030B52D4B89B00446D0B900901A6B42F48D
:104F700080721A631B6B03F480730093009B49BB20
:104F8000264B059133F81430CDE90331022303A9F0
:104F90000693234B53F82400FCF768FE09B030BD9C
:104FA00001284FF000020AD101921A6B42F480727C
:104FB0001A631B6B03F480730193019BDFE702927A
:104FC0001A6B42F480721A631B6B03F480730293B2
:104FD000029BD4E70129E1D1104B0025114A03A916
:104FE00033F8143003930223CDE905530E4BAC4242
:104FF00018BF134604930A4B53F82400FCF736FEFF
:105000000A4B2A460F2113F914402046FCF720FBD7
:105010002046FCF74FFBC1E7003802400E3D010877
:10502000600000200000211000001110083D010860
:105030000148FFF78BBE00BF481A002070470000F0
:105040001FB552BA0223ADF80E200DF10E020193E6
:1050500000920A4601460348FFF72CFF05B05DF8B1
:1050600004FB00BF481A00201FB500230A460DF1BB
:105070000E01ADF80E300223009101460193054860
:10508000FFF730FFBDF80E0040BA80B205B05DF802
:1050900004FB00BF481A002009F082BEFFF7C8BF1A
:1050A0001FB58DF80F200DF10F02012300920A4663
:1050B000014601930248FFF7FDFE05B05DF804FBD1
:1050C000481A00201FB500230A460DF10F018DF884
:1050D0000F3001230091014601930448FFF702FFBE
:1050E0009DF80F0005B05DF804FB00BF481A0020D2
:1050F00009F056BE1FB5ADF80E200DF10E020123CA
:1051000000920A46014601930248FFF7D3FE05B01C
:105110005DF804FB0C1A00201FB501930DF10F037D
:105120008DF80F200A460093014601230248FFF73D
:10513000C1FE05B05DF804FB0C1A00201FB500236A
:105140000A460DF10F018DF80F3001230091014641
:1051500001930448FFF7C6FE9DF80F0005B05DF807
:1051600004FB00BF0C1A00200148FFF7EFBD00BF91
:105170000C1A0020054B064A05481360054A53687F
:1051800023F480335360FEF70ABC00BF045C014087
:10519000B81B0020005C0140054B064A054813601F
:1051A000054A536A23F480335362FEF7F8BB00BF0D
:1051B000245C0140341B0020005C01402DE9F74FC6
:1051C000354B0026354D1746DFF8DC804FF4803A2A
:1051D0002B604FF00109D8F804304FF0200B304C11
:1051E00023F48033C8F804308023EA614FF400725E
:1051F00068600420EA634FF4802201916E612E639F
:10520000AE60C5F81890AE65C5E90D364FF4005391
:105210002B614023C5E917012846C5E9103BC5E9C4
:105220001426C5E912A6FEF723FB1E4880234FF47F
:1052300000722060D8F82400019920F48030C8F86A
:1052400024000320E2634FF4802260600420E761C1
:10525000E065204666612663C4F808902661C4F8BC
:105260001890A6652166C4E90D364023C4E91426CA
:10527000C4E9103BC4E912A6FEF7FAFA2A681368DB
:1052800043EA0A0313602268136843EA0A031360BF
:1052900003B0BDE8F08F00BF045C0140B81B0020E4
:1052A000341B0020245C0140005C014038B50C4BED
:1052B00005460C468AB21B6801463420DB689847D5
:1052C00060B9B4F5003F2946064834BFC4F34F0225
:1052D0004FF6FF72FEF7ACFB002038BD0120FCE763
:1052E0003C1C0020B81B002008B506F09FFC08BD40
:1052F00008B506F09CFC08BD704700002DE9F0479A
:105300004C4C8AB000254FF0020903274FF00A08E1
:1053100000950646636C05A947484FF0400A43F4E0
:1053200000036364636C03F400030093009B019526
:10533000236B43F480732363236B03F48073019323
:10534000019B0295236B43F480732363236B03F467
:1053500080730293029B0395236B43F48073236352
:10536000236B079503F480730393039B8023CDE99C
:105370000878CDE90539FCF779FC202305A92E48EA
:10538000CDF82480CDE90539CDE90757FCF76EFC4F
:1053900005A92948CDF82480CDE905A9CDE907570D
:1053A000FCF764FC102305A92348CDF82480CDE93F
:1053B0000539CDE90757FCF759FC0495236B326892
:1053C00043F480032363236B03F480030493049B5F
:1053D0001A4B9A4223D11A4C4FF0C0634FF48062AB
:1053E0004FF400514FF40030F466E5602563A66386
:1053F000C4E9013A4FF40063C4E904234FF4807315
:10540000C4E906130423C4E908030E4B2046C4E98B
:105410000A752360FCF7BEF92046FCF781F90022EB
:1054200005213C20FCF714F93C20FCF743F90AB0B5
:10543000BDE8F0870038024000200240045C0140D3
:10544000DC1A00207064024010B5A2B00C4601A81E
:10545000FEF788F842F611339C4207D045F22263EA
:105460009C4203D04AF644439C4211D14FF480132E
:1054700001934FF48003119340F2AD130293022382
:105480000493132301A80A93FDF7C2FC22B010BDB8
:105490004FF4801301934FF4800311934FF4AC73D6
:1054A0000293072304930123ECE700008AB201462C
:1054B000024808B5FEF706FB002008BD341B00209B
:1054C00008B506F09BFB08BD08B506F0A3FB08BDB8
:1054D0007047000038B50C48FEF78FFB05460B48B7
:1054E000FEF78BFBAB1E0446DBB2022B01D9122D5B
:1054F00001D1FFF701FFA31EDBB2022B01D9222C41
:1055000001D1FFF7E5FF38BDB81B0020341B002098
:105510002DE9F0413C4C8AB0002502274FF4806809
:105520000646019505A9636C384843F4000363649B
:10553000636C03F400030193019B0295236B43F01A
:1055400040032363236B03F040030293029B0A236F
:10555000CDE905870993CDE90757FCF787FB03954C
:10556000236B05A92A4843F080032363236B03F0D0
:1055700080030393039B4FF40043CDE90757CDE924
:105580000535FCF773FB0495236B326843F4800305
:105590002363236B03F480030493049B1D4B9A4203
:1055A0001FD11D4C4FF400624FF400534FF4807133
:1055B0002046346765622563A663C4E905234FF47A
:1055C0000033C4E907130323C4E90A35134BC4E9C4
:1055D0000155C4E903582360FCF7DCF82046FCF7CA
:1055E0009FF8002206214620FCF732F84620FCF7FF
:1055F00061F8002203212820FCF72AF82820FCF774
:1056000059F80AB0BDE8F0810038024000180240A5
:10561000001C0240245C0140841A0020B86402404F
:105620002DE9F0411D4620F4807304460F46B3F582
:10563000007F904602D00120BDE8F081FFF7ACFD6D
:10564000FFF798FD294600221C48FFF7FDFE1B4A84
:105650001B4B10461360FEF7D0FA014610B91748ED
:10566000FFF756FF174A184B10461360FEF7C5FAAE
:10567000014610B91348FFF741FEB4F5007F134E01
:105680002A464FF0000014BF05210A21FFF796FDBE
:10569000B3683420984748F694139842CBD1F36A04
:1056A000342098470A4B424644EA07011E603420E2
:1056B00036682B46B0470020BEE700BF341B0020F1
:1056C000245C0140B81B0020045C0140A8000020BD
:1056D0003C1C00202DE9F74380461F4618484FF434
:1056E00040330D46164643603421164BDDF82C90AE
:1056F0001A68154B01FB02339C6CA31E5C425C4193
:105700000A9B6400C360114B84600360FCF7A8F936
:1057100098B941460A48FCF749FA70B933462A4617
:10572000494607480097FCF7C5F930B90A210448F3
:1057300003B0BDE8F043FCF7DAB903B0BDE8F0838D
:10574000E01C0020DC1C0020201D002000B00240D6
:10575000034B34211A68034B01FB0233186E704768
:10576000DC1C0020201D0020034B34211A68034B51
:1057700001FB0233586E7047DC1C0020201D002006
:1057800070B500258EB00E4604460195FFF7E0FF88
:10579000CDE90205FFF7E8FFFF234FF4C0620A9648
:1057A000ADF834508DF83650CDE906350723CDE9F4
:1057B0000405CDE90823FFF7CBFF0B90FFF7D4FFDB
:1057C000224601A90C900848FCF7A6FF0C22074BC3
:1057D0004FF0FF3154431A195160054991604FF061
:1057E0007F421A510EB070BD201D0020C41C002045
:1057F00074000020014B1860704700BFDC1C0020C3
:10580000034B0C221B685343024AD050704700BF21
:10581000DC1C0020C41C0020034B0C211A68034B25
:1058200001FB023358607047DC1C0020C41C0020C0
:10583000034B0C211A68034B01FB0233986070473D
:10584000DC1C0020C41C00200E4B2DE9F0410F464B
:10585000144634211A680C4B054601FB0233D3F879
:105860004880DE6DFFF774FFB8F1020F00FB0750B0
:1058700004D1A4B226F81040BDE8F08146F82040DB
:10588000FAE700BFDC1C0020201D00202DE9F04FAE
:105890002C4B85B0203A4FF00008D3F800B0CDE98A
:1058A00001010C20284900FB0B118968B1F8049014
:1058B000B1F806A009F107060D680AFB02F2F6101E
:1058C000C9EBC60006FB025509F1FF3252FA80F31C
:1058D0000393029BD04503EB080293B2009302D3DB
:1058E00005B0BDE8F08F012E2C780BD0022E1BBF27
:1058F0006A7824042C8844EA022415BFAA7864BA82
:105900001443A4B20027B94503D808F1010835446F
:10591000DFE7019B0122D819039BD91B80B2013715
:105920008A40009922424FF00C020DBF064B02FB49
:105930000BF2054B02FB0B3214BF9A585268FFF76B
:1059400083FFE0E7DC1C0020C41C00202DE9F84F99
:10595000804610469B460E461546FBF773F9824675
:10596000FFF7F6FE234B0C21BBF1010F1A68224B07
:1059700001FB02339F68B7F80490B0FBF9F41DD027
:10598000BBF1020F23D00FFA88F30024002BD8BFFD
:105990004FF00108FFF7DCFE15F804A0A3B20134B4
:1059A00009FB130080B2484534BF00200120BAF142
:1059B000000F08BF002088B9BDE8F88FA4EB0A04E7
:1059C00009FB04F408EB54001FFA80F8DBE7A4EBB2
:1059D0000A0414FB09F4A4EB0800F5E7404652461C
:1059E0003146FFF753FFB7F80490C8441FFA88F810
:1059F000D0E700BFDC1C0020C41C00202DE9F04FC4
:105A00009846184B4FF00C09DFF860B01E6885B05F
:105A10000446174609FB06F38A4609FB06F95BF8BC
:105A20000300FFF7EDFE34230F4A03FB0622936CBD
:105A3000D56D0393FFF78CFE039B00FB0A44C01B4C
:105A40003A46022B5BF809300090304601930CBFB8
:105A500005EB440105EB84014346FFF73BFE05B02F
:105A6000BDE8F08FDC1C0020201D0020C41C00209D
:105A700008B5094B4FF4805108481A68936943F000
:105A8000010393610122FCF775FA01220821044801
:105A9000BDE80840FCF76EBA201D0020002002403F
:105AA0000028024008B5094B4FF4805108481A6895
:105AB000936923F0010393610022FCF75BFA002253
:105AC00008210448BDE80840FCF754BA201D002016
:105AD000002002400028024070B54E4B8EB00022DC
